Component: ARM Compiler 6.14.1 Tool: armlink [5db06d00]

==============================================================================

Section Cross References

    startup_stm32h563xx.o(STACK) refers (Special) to heapauxi.o(.text) for __use_two_region_memory
    startup_stm32h563xx.o(HEAP) refers (Special) to heapauxi.o(.text) for __use_two_region_memory
    startup_stm32h563xx.o(RESET) refers (Special) to heapauxi.o(.text) for __use_two_region_memory
    startup_stm32h563xx.o(RESET) refers to startup_stm32h563xx.o(STACK) for __initial_sp
    startup_stm32h563xx.o(RESET) refers to startup_stm32h563xx.o(.text) for Reset_Handler
    startup_stm32h563xx.o(RESET) refers to stm32h5xx_it.o(.text.NMI_Handler) for NMI_Handler
    startup_stm32h563xx.o(RESET) refers to stm32h5xx_it.o(.text.HardFault_Handler) for HardFault_Handler
    startup_stm32h563xx.o(RESET) refers to stm32h5xx_it.o(.text.MemManage_Handler) for MemManage_Handler
    startup_stm32h563xx.o(RESET) refers to stm32h5xx_it.o(.text.BusFault_Handler) for BusFault_Handler
    startup_stm32h563xx.o(RESET) refers to stm32h5xx_it.o(.text.UsageFault_Handler) for UsageFault_Handler
    startup_stm32h563xx.o(RESET) refers to portasm.o(.text.SVC_Handler) for SVC_Handler
    startup_stm32h563xx.o(RESET) refers to stm32h5xx_it.o(.text.DebugMon_Handler) for DebugMon_Handler
    startup_stm32h563xx.o(RESET) refers to portasm.o(.text.PendSV_Handler) for PendSV_Handler
    startup_stm32h563xx.o(RESET) refers to cmsis_os2.o(.text.SysTick_Handler) for SysTick_Handler
    startup_stm32h563xx.o(RESET) refers to stm32h5xx_it.o(.text.GPDMA1_Channel0_IRQHandler) for GPDMA1_Channel0_IRQHandler
    startup_stm32h563xx.o(RESET) refers to stm32h5xx_it.o(.text.GPDMA1_Channel1_IRQHandler) for GPDMA1_Channel1_IRQHandler
    startup_stm32h563xx.o(RESET) refers to stm32h5xx_it.o(.text.TIM6_IRQHandler) for TIM6_IRQHandler
    startup_stm32h563xx.o(RESET) refers to stm32h5xx_it.o(.text.USART2_IRQHandler) for USART2_IRQHandler
==============================================================================

Removing Unused input sections from the image.

    Removing main.o(.text), (0 bytes).
    Removing main.o(.ARM.exidx.text.main), (8 bytes).
    Removing main.o(.text.SystemClock_Config), (178 bytes).
    Removing main.o(.ARM.exidx.text.SystemClock_Config), (8 bytes).
    Removing main.o(.ARM.exidx.text.Error_Handler), (8 bytes).
    Removing main.o(.ARM.exidx.text.HAL_TIM_PeriodElapsedCallback), (8 bytes).
    Removing main.o(.ARM.use_no_argv), (4 bytes).
    Removing gpio.o(.text), (0 bytes).
    Removing gpio.o(.ARM.exidx.text.MX_GPIO_Init), (8 bytes).
    Removing app_freertos.o(.text), (0 bytes).
    Removing app_freertos.o(.ARM.exidx.text.MX_FREERTOS_Init), (8 bytes).
    Removing app_freertos.o(.ARM.exidx.text.StartDefaultTask), (8 bytes).
    Removing app_freertos.o(.ARM.exidx.text.SPILCDTaskFunction), (8 bytes).
    Removing app_freertos.o(.ARM.exidx.text.CH1_UART2_TxTaskFunction), (8 bytes).
    Removing app_freertos.o(.ARM.exidx.text.CH2_UART4_RxTaskFunction), (8 bytes).
    Removing gpdma.o(.text), (0 bytes).
    Removing gpdma.o(.ARM.exidx.text.MX_GPDMA1_Init), (8 bytes).
    Removing icache.o(.text), (0 bytes).
==============================================================================

Image Symbol Table

    Local Symbols

    Symbol Name                              Value     Ov Type        Size  Object(Section)

    ../clib/angel/boardlib.s                 0x00000000   Number         0  boardinit1.o ABSOLUTE
    ../clib/angel/boardlib.s                 0x00000000   Number         0  boardinit2.o ABSOLUTE
    ../clib/angel/boardlib.s                 0x00000000   Number         0  boardinit3.o ABSOLUTE
    ../clib/angel/boardlib.s                 0x00000000   Number         0  boardshut.o ABSOLUTE
    ../clib/angel/handlers.s                 0x00000000   Number         0  __scatter_copy.o ABSOLUTE
    ../clib/angel/handlers.s                 0x00000000   Number         0  __scatter_zi.o ABSOLUTE
    ../clib/angel/kernel.s                   0x00000000   Number         0  __rtentry.o ABSOLUTE
    ../clib/angel/kernel.s                   0x00000000   Number         0  __rtentry2.o ABSOLUTE
    ../clib/angel/kernel.s                   0x00000000   Number         0  __rtentry4.o ABSOLUTE
    ../clib/angel/kernel.s                   0x00000000   Number         0  rtexit.o ABSOLUTE
    ../clib/angel/kernel.s                   0x00000000   Number         0  rtexit2.o ABSOLUTE
    ../clib/angel/rt.s                       0x00000000   Number         0  aeabi_ldiv0.o ABSOLUTE
    ../clib/angel/rt.s                       0x00000000   Number         0  aeabi_ldiv0_sigfpe.o ABSOLUTE
    ../clib/angel/rt.s                       0x00000000   Number         0  rt_heap_descriptor.o ABSOLUTE
    ../clib/angel/rt.s                       0x00000000   Number         0  rt_heap_descriptor_intlibspace.o ABSOLUTE
    ../clib/angel/rt.s                       0x00000000   Number         0  rt_div0.o ABSOLUTE
    ../clib/angel/rt.s                       0x00000000   Number         0  rt_raise.o ABSOLUTE
    ../clib/angel/scatter.s                  0x00000000   Number         0  __scatter.o ABSOLUTE
    ../clib/angel/startup.s                  0x00000000   Number         0  __main.o ABSOLUTE
    ../clib/angel/sys.s                      0x00000000   Number         0  mutex_dummy.o ABSOLUTE
    ../clib/angel/sys.s                      0x00000000   Number         0  libspace.o ABSOLUTE
    ../clib/angel/sys.s                      0x00000000   Number         0  use_no_semi.o ABSOLUTE
    ../clib/angel/sys.s                      0x00000000   Number         0  indicate_semi.o ABSOLUTE
    ../clib/angel/sys.s                      0x00000000   Number         0  sys_stackheap_outer.o ABSOLUTE
    ../clib/angel/sysapp.c                   0x00000000   Number         0  sys_command.o ABSOLUTE
    ../clib/angel/sysapp.c                   0x00000000   Number         0  sys_command_hlt.o ABSOLUTE
    ../clib/angel/sysapp.c                   0x00000000   Number         0  sys_exit.o ABSOLUTE
    ../clib/angel/sysapp.c                   0x00000000   Number         0  sys_exit_hlt.o ABSOLUTE
    ../clib/angel/sysapp.c                   0x00000000   Number         0  sys_wrch.o ABSOLUTE
    ../clib/angel/sysapp.c                   0x00000000   Number         0  sys_wrch_hlt.o ABSOLUTE
    ../clib/armsys.c                         0x00000000   Number         0  _get_argv.o ABSOLUTE
    ../clib/armsys.c                         0x00000000   Number         0  argv_veneer.o ABSOLUTE
    ../clib/armsys.c                         0x00000000   Number         0  argv_veneer.o ABSOLUTE
    ../clib/armsys.c                         0x00000000   Number         0  _get_argv_nomalloc.o ABSOLUTE
    ../clib/armsys.c                         0x00000000   Number         0  no_argv.o ABSOLUTE
    ../clib/heap1.c                          0x00000000   Number         0  h1_alloc.o ABSOLUTE
    ../clib/heap1.c                          0x00000000   Number         0  h1_alloc_threads.o ABSOLUTE
    ../clib/heap1.c                          0x00000000   Number         0  h1_init.o ABSOLUTE
    ../clib/heap1.c                          0x00000000   Number         0  h1_free.o ABSOLUTE
    ../clib/heap1.c                          0x00000000   Number         0  h1_init_threads.o ABSOLUTE
    ../clib/heap1.c                          0x00000000   Number         0  h1_free_threads.o ABSOLUTE
    ../clib/heap1.c                          0x00000000   Number         0  h1_extend.o ABSOLUTE
    ../clib/heap1.c                          0x00000000   Number         0  h1_extend_threads.o ABSOLUTE
    ../clib/heap1.c                          0x00000000   Number         0  h1_final.o ABSOLUTE
    ../clib/heap1.c                          0x00000000   Number         0  h1_final_threads.o ABSOLUTE
    ../clib/heap2.c                          0x00000000   Number         0  heap2.o ABSOLUTE
    ../clib/heap2.c                          0x00000000   Number         0  heap2_threads.o ABSOLUTE
    ../clib/heap2.c                          0x00000000   Number         0  fdtree.o ABSOLUTE
    ../clib/heapalloc.c                      0x00000000   Number         0  malloc.o ABSOLUTE
    ../clib/heapalloc.c                      0x00000000   Number         0  hguard.o ABSOLUTE
    ../clib/heapalloc.c                      0x00000000   Number         0  init_alloc.o ABSOLUTE
    ../clib/heapalloc.c                      0x00000000   Number         0  free.o ABSOLUTE
    ../clib/heapalloc.c                      0x00000000   Number         0  heapstubs.o ABSOLUTE
    ../clib/heapalloc.c                      0x00000000   Number         0  hrguard.o ABSOLUTE
    ../clib/heapalloc.c                      0x00000000   Number         0  term_alloc.o ABSOLUTE
    ../clib/heapaux.c                        0x00000000   Number         0  heapauxi.o ABSOLUTE
    ../clib/heapaux.c                        0x00000000   Number         0  heapauxa.o ABSOLUTE
    ../clib/libinit.s                        0x00000000   Number         0  libinit2.o ABSOLUTE
    ../clib/libinit.s                        0x00000000   Number         0  libinit.o ABSOLUTE
    ../clib/libinit.s                        0x00000000   Number         0  libshutdown2.o ABSOLUTE
    ../clib/libinit.s                        0x00000000   Number         0  libshutdown.o ABSOLUTE
    ../clib/longlong.s                       0x00000000   Number         0  lludivv7m.o ABSOLUTE
    ../clib/maybe.s                          0x00000000   Number         0  maybetermalloc1.o ABSOLUTE
    ../clib/maybe.s                          0x00000000   Number         0  maybetermalloc2.o ABSOLUTE
    ../clib/memcpset.s                       0x00000000   Number         0  rt_memcpy_v6.o ABSOLUTE
    ../clib/memcpset.s                       0x00000000   Number         0  aeabi_memset.o ABSOLUTE
    ../clib/memcpset.s                       0x00000000   Number         0  aeabi_memset4.o ABSOLUTE
    ../clib/memcpset.s                       0x00000000   Number         0  rt_memclr.o ABSOLUTE
    ../clib/memcpset.s                       0x00000000   Number         0  rt_memclr_w.o ABSOLUTE
    ../clib/memcpset.s                       0x00000000   Number         0  rt_memcpy_w.o ABSOLUTE
    ../clib/misc.s                           0x00000000   Number         0  printf_stubs.o ABSOLUTE
    ../clib/printf.c                         0x00000000   Number         0  __2sprintf.o ABSOLUTE
    ../clib/printf.c                         0x00000000   Number         0  noretval__2sprintf.o ABSOLUTE
    ../clib/printf.c                         0x00000000   Number         0  __printf.o ABSOLUTE
    ../clib/printf.c                         0x00000000   Number         0  _printf_pad.o ABSOLUTE
    ../clib/printf.c                         0x00000000   Number         0  _printf_dec.o ABSOLUTE
    ../clib/printf.c                         0x00000000   Number         0  _printf_hex_ll.o ABSOLUTE
    ../clib/printf.c                         0x00000000   Number         0  _printf_hex_int.o ABSOLUTE
    ../clib/printf.c                         0x00000000   Number         0  _printf_hex_int_ll.o ABSOLUTE
    ../clib/printf.c                         0x00000000   Number         0  _printf_hex_ptr.o ABSOLUTE
    ../clib/printf.c                         0x00000000   Number         0  _printf_hex_int_ptr.o ABSOLUTE
    ../clib/printf.c                         0x00000000   Number         0  _printf_hex_ll_ptr.o ABSOLUTE
    ../clib/printf.c                         0x00000000   Number         0  _printf_hex_int_ll_ptr.o ABSOLUTE
    ../clib/printf.c                         0x00000000   Number         0  __printf_flags.o ABSOLUTE
    ../clib/printf.c                         0x00000000   Number         0  __printf_ss.o ABSOLUTE
    ../clib/printf.c                         0x00000000   Number         0  __printf_flags_ss.o ABSOLUTE
    ../clib/printf.c                         0x00000000   Number         0  __printf_wp.o ABSOLUTE
    ../clib/printf.c                         0x00000000   Number         0  __printf_flags_wp.o ABSOLUTE
    ../clib/printf.c                         0x00000000   Number         0  __printf_ss_wp.o ABSOLUTE
    ../clib/printf.c                         0x00000000   Number         0  __printf_flags_ss_wp.o ABSOLUTE
    ../clib/printf.c                         0x00000000   Number         0  _printf_intcommon.o ABSOLUTE
    ../clib/printf.c                         0x00000000   Number         0  _printf_char_common.o ABSOLUTE
    ../clib/printf.c                         0x00000000   Number         0  _sputc.o ABSOLUTE
    ../clib/printf.c                         0x00000000   Number         0  __printf_nopercent.o ABSOLUTE
    ../clib/printf_percent.s                 0x00000000   Number         0  _printf_x.o ABSOLUTE
    ../clib/printf_percent.s                 0x00000000   Number         0  _printf_d.o ABSOLUTE
    ../clib/printf_percent.s                 0x00000000   Number         0  _printf_percent.o ABSOLUTE
    ../clib/printf_percent.s                 0x00000000   Number         0  _printf_percent_end.o ABSOLUTE
    ../clib/signal.c                         0x00000000   Number         0  defsig_rtmem_outer.o ABSOLUTE
    ../clib/signal.c                         0x00000000   Number         0  defsig_rtmem_formal.o ABSOLUTE
    ../clib/signal.c                         0x00000000   Number         0  defsig_exit.o ABSOLUTE
    ../clib/signal.c                         0x00000000   Number         0  defsig_fpe_outer.o ABSOLUTE
    ../clib/signal.c                         0x00000000   Number         0  defsig_fpe_formal.o ABSOLUTE
    ../clib/signal.c                         0x00000000   Number         0  defsig_rtmem_inner.o ABSOLUTE
    ../clib/signal.c                         0x00000000   Number         0  __raise.o ABSOLUTE
    ../clib/signal.c                         0x00000000   Number         0  defsig_general.o ABSOLUTE
    ../clib/signal.c                         0x00000000   Number         0  defsig_fpe_inner.o ABSOLUTE
    ../clib/signal.c                         0x00000000   Number         0  defsig_abrt_inner.o ABSOLUTE
    ../clib/signal.c                         0x00000000   Number         0  defsig_rtred_inner.o ABSOLUTE
    ../clib/signal.c                         0x00000000   Number         0  defsig_stak_inner.o ABSOLUTE
    ../clib/signal.c                         0x00000000   Number         0  defsig_pvfn_inner.o ABSOLUTE
    ../clib/signal.c                         0x00000000   Number         0  defsig_cppl_inner.o ABSOLUTE
    ../clib/signal.c                         0x00000000   Number         0  defsig_segv_inner.o ABSOLUTE
    ../clib/signal.c                         0x00000000   Number         0  defsig_other.o ABSOLUTE
    ../clib/signal.s                         0x00000000   Number         0  defsig.o ABSOLUTE
    ../clib/stdlib.c                         0x00000000   Number         0  exit.o ABSOLUTE
    ../clib/string.c                         0x00000000   Number         0  strlen.o ABSOLUTE
    ../fplib/fpinit.s                        0x00000000   Number         0  fpinit.o ABSOLUTE
    app_freertos.c                           0x00000000   Number         0  app_freertos.o ABSOLUTE
    cmsis_os2.c                              0x00000000   Number         0  cmsis_os2.o ABSOLUTE
    croutine.c                               0x00000000   Number         0  croutine.o ABSOLUTE
    dc.s                                     0x00000000   Number         0  dc.o ABSOLUTE
    draw.c                                   0x00000000   Number         0  draw.o ABSOLUTE
    event_groups.c                           0x00000000   Number         0  event_groups.o ABSOLUTE
    font_8x16.c                              0x00000000   Number         0  font_8x16.o ABSOLUTE
    font_chinese.c                           0x00000000   Number         0  font_chinese.o ABSOLUTE
    gpdma.c                                  0x00000000   Number         0  gpdma.o ABSOLUTE
    gpio.c                                   0x00000000   Number         0  gpio.o ABSOLUTE
    heap_4.c                                 0x00000000   Number         0  heap_4.o ABSOLUTE
    icache.c                                 0x00000000   Number         0  icache.o ABSOLUTE
    list.c                                   0x00000000   Number         0  list.o ABSOLUTE
    main.c                                   0x00000000   Number         0  main.o ABSOLUTE
    memorymap.c                              0x00000000   Number         0  memorymap.o ABSOLUTE
    picture.c                                0x00000000   Number         0  picture.o ABSOLUTE
    port.c                                   0x00000000   Number         0  port.o ABSOLUTE
    portasm.c                                0x00000000   Number         0  portasm.o ABSOLUTE
    queue.c                                  0x00000000   Number         0  queue.o ABSOLUTE
    spi.c                                    0x00000000   Number         0  spi.o ABSOLUTE
    spi_lcd.c                                0x00000000   Number         0  spi_lcd.o ABSOLUTE
    startup_stm32h563xx.s                    0x00000000   Number         0  startup_stm32h563xx.o ABSOLUTE
    stm32h5xx_hal.c                          0x00000000   Number         0  stm32h5xx_hal.o ABSOLUTE
    stm32h5xx_hal_cortex.c                   0x00000000   Number         0  stm32h5xx_hal_cortex.o ABSOLUTE
    stm32h5xx_hal_dma.c                      0x00000000   Number         0  stm32h5xx_hal_dma.o ABSOLUTE
    stm32h5xx_hal_dma_ex.c                   0x00000000   Number         0  stm32h5xx_hal_dma_ex.o ABSOLUTE
    stm32h5xx_hal_exti.c                     0x00000000   Number         0  stm32h5xx_hal_exti.o ABSOLUTE
    stm32h5xx_hal_flash.c                    0x00000000   Number         0  stm32h5xx_hal_flash.o ABSOLUTE
    stm32h5xx_hal_flash_ex.c                 0x00000000   Number         0  stm32h5xx_hal_flash_ex.o ABSOLUTE
    stm32h5xx_hal_gpio.c                     0x00000000   Number         0  stm32h5xx_hal_gpio.o ABSOLUTE
    stm32h5xx_hal_icache.c                   0x00000000   Number         0  stm32h5xx_hal_icache.o ABSOLUTE
    stm32h5xx_hal_msp.c                      0x00000000   Number         0  stm32h5xx_hal_msp.o ABSOLUTE
    stm32h5xx_hal_pwr.c                      0x00000000   Number         0  stm32h5xx_hal_pwr.o ABSOLUTE
    stm32h5xx_hal_pwr_ex.c                   0x00000000   Number         0  stm32h5xx_hal_pwr_ex.o ABSOLUTE
    stm32h5xx_hal_rcc.c                      0x00000000   Number         0  stm32h5xx_hal_rcc.o ABSOLUTE
    stm32h5xx_hal_rcc_ex.c                   0x00000000   Number         0  stm32h5xx_hal_rcc_ex.o ABSOLUTE
    stm32h5xx_hal_spi.c                      0x00000000   Number         0  stm32h5xx_hal_spi.o ABSOLUTE
    stm32h5xx_hal_spi_ex.c                   0x00000000   Number         0  stm32h5xx_hal_spi_ex.o ABSOLUTE
    stm32h5xx_hal_tim.c                      0x00000000   Number         0  stm32h5xx_hal_tim.o ABSOLUTE
    stm32h5xx_hal_tim_ex.c                   0x00000000   Number         0  stm32h5xx_hal_tim_ex.o ABSOLUTE
    stm32h5xx_hal_timebase_tim.c             0x00000000   Number         0  stm32h5xx_hal_timebase_tim.o ABSOLUTE
    stm32h5xx_hal_uart.c                     0x00000000   Number         0  stm32h5xx_hal_uart.o ABSOLUTE
    stm32h5xx_hal_uart_ex.c                  0x00000000   Number         0  stm32h5xx_hal_uart_ex.o ABSOLUTE
    stm32h5xx_it.c                           0x00000000   Number         0  stm32h5xx_it.o ABSOLUTE
    stream_buffer.c                          0x00000000   Number         0  stream_buffer.o ABSOLUTE
    system_stm32h5xx.c                       0x00000000   Number         0  system_stm32h5xx.o ABSOLUTE
    tasks.c                                  0x00000000   Number         0  tasks.o ABSOLUTE
    timers.c                                 0x00000000   Number         0  timers.o ABSOLUTE
    usart.c                                  0x00000000   Number         0  usart.o ABSOLUTE
    RESET                                    0x08000000   Section      588  startup_stm32h563xx.o(RESET)
    !!!main                                  0x0800024c   Section        8  __main.o(!!!main)
    !!!scatter                               0x08000254   Section       52  __scatter.o(!!!scatter)
    !!handler_copy                           0x08000288   Section       26  __scatter_copy.o(!!handler_copy)
    !!handler_zi                             0x080002a4   Section       28  __scatter_zi.o(!!handler_zi)
    .ARM.Collect$$_printf_percent$$00000000  0x080002c0   Section        0  _printf_percent.o(.ARM.Collect$$_printf_percent$$00000000)
    .ARM.Collect$$_printf_percent$$00000009  0x080002c0   Section        6  _printf_d.o(.ARM.Collect$$_printf_percent$$00000009)
    .ARM.Collect$$_printf_percent$$0000000C  0x080002c6   Section        6  _printf_x.o(.ARM.Collect$$_printf_percent$$0000000C)
    .ARM.Collect$$_printf_percent$$00000017  0x080002cc   Section        4  _printf_percent_end.o(.ARM.Collect$$_printf_percent$$00000017)
    .ARM.Collect$$libinit$$00000000          0x080002d0   Section        2  libinit.o(.ARM.Collect$$libinit$$00000000)
    .ARM.Collect$$libinit$$00000001          0x080002d2   Section        4  libinit2.o(.ARM.Collect$$libinit$$00000001)
    .ARM.Collect$$libinit$$00000004          0x080002d6   Section        0  libinit2.o(.ARM.Collect$$libinit$$00000004)
    .ARM.Collect$$libinit$$0000000A          0x080002d6   Section        0  libinit2.o(.ARM.Collect$$libinit$$0000000A)
    .ARM.Collect$$libinit$$0000000C          0x080002d6   Section        0  libinit2.o(.ARM.Collect$$libinit$$0000000C)
    .ARM.Collect$$libinit$$0000000E          0x080002d6   Section        0  libinit2.o(.ARM.Collect$$libinit$$0000000E)
    .ARM.Collect$$libinit$$00000011          0x080002d6   Section        0  libinit2.o(.ARM.Collect$$libinit$$00000011)
    .ARM.Collect$$libinit$$00000013          0x080002d6   Section        0  libinit2.o(.ARM.Collect$$libinit$$00000013)
    .ARM.Collect$$libinit$$00000015          0x080002d6   Section        0  libinit2.o(.ARM.Collect$$libinit$$00000015)
    .ARM.Collect$$libinit$$00000017          0x080002d6   Section        0  libinit2.o(.ARM.Collect$$libinit$$00000017)
    .ARM.Collect$$libinit$$00000019          0x080002d6   Section        0  libinit2.o(.ARM.Collect$$libinit$$00000019)
    .ARM.Collect$$libinit$$0000001B          0x080002d6   Section        0  libinit2.o(.ARM.Collect$$libinit$$0000001B)
    .ARM.Collect$$libinit$$0000001D          0x080002d6   Section        0  libinit2.o(.ARM.Collect$$libinit$$0000001D)
    .ARM.Collect$$libinit$$0000001F          0x080002d6   Section        0  libinit2.o(.ARM.Collect$$libinit$$0000001F)
    .ARM.Collect$$libinit$$00000021          0x080002d6   Section        0  libinit2.o(.ARM.Collect$$libinit$$00000021)
    .ARM.Collect$$libinit$$00000023          0x080002d6   Section        0  libinit2.o(.ARM.Collect$$libinit$$00000023)
    .ARM.Collect$$libinit$$00000025          0x080002d6   Section        0  libinit2.o(.ARM.Collect$$libinit$$00000025)
    .ARM.Collect$$libinit$$0000002C          0x080002d6   Section        0  libinit2.o(.ARM.Collect$$libinit$$0000002C)
    .ARM.Collect$$libinit$$0000002E          0x080002d6   Section        0  libinit2.o(.ARM.Collect$$libinit$$0000002E)
    .ARM.Collect$$libinit$$00000030          0x080002d6   Section        0  libinit2.o(.ARM.Collect$$libinit$$00000030)
    .ARM.Collect$$libinit$$00000032          0x080002d6   Section        0  libinit2.o(.ARM.Collect$$libinit$$00000032)
    .ARM.Collect$$libinit$$00000033          0x080002d6   Section        2  libinit2.o(.ARM.Collect$$libinit$$00000033)
    .ARM.Collect$$libshutdown$$00000000      0x080002d8   Section        2  libshutdown.o(.ARM.Collect$$libshutdown$$00000000)
    .ARM.Collect$$libshutdown$$00000002      0x080002da   Section        0  libshutdown2.o(.ARM.Collect$$libshutdown$$00000002)
    .ARM.Collect$$libshutdown$$00000004      0x080002da   Section        0  libshutdown2.o(.ARM.Collect$$libshutdown$$00000004)
    .ARM.Collect$$libshutdown$$00000007      0x080002da   Section        0  libshutdown2.o(.ARM.Collect$$libshutdown$$00000007)
    .ARM.Collect$$libshutdown$$0000000A      0x080002da   Section        0  libshutdown2.o(.ARM.Collect$$libshutdown$$0000000A)
    .ARM.Collect$$libshutdown$$0000000C      0x080002da   Section        0  libshutdown2.o(.ARM.Collect$$libshutdown$$0000000C)
    .ARM.Collect$$libshutdown$$0000000F      0x080002da   Section        0  libshutdown2.o(.ARM.Collect$$libshutdown$$0000000F)
    .ARM.Collect$$libshutdown$$00000010      0x080002da   Section        2  libshutdown2.o(.ARM.Collect$$libshutdown$$00000010)
    .ARM.Collect$$rtentry$$00000000          0x080002dc   Section        0  __rtentry.o(.ARM.Collect$$rtentry$$00000000)
    .ARM.Collect$$rtentry$$00000002          0x080002dc   Section        0  __rtentry2.o(.ARM.Collect$$rtentry$$00000002)
    .ARM.Collect$$rtentry$$00000004          0x080002dc   Section        6  __rtentry4.o(.ARM.Collect$$rtentry$$00000004)
    .ARM.Collect$$rtentry$$00000009          0x080002e2   Section        0  __rtentry2.o(.ARM.Collect$$rtentry$$00000009)
    .ARM.Collect$$rtentry$$0000000A          0x080002e2   Section        4  __rtentry2.o(.ARM.Collect$$rtentry$$0000000A)
    .ARM.Collect$$rtentry$$0000000C          0x080002e6   Section        0  __rtentry2.o(.ARM.Collect$$rtentry$$0000000C)
    .ARM.Collect$$rtentry$$0000000D          0x080002e6   Section        8  __rtentry2.o(.ARM.Collect$$rtentry$$0000000D)
    .ARM.Collect$$rtexit$$00000000           0x080002ee   Section        2  rtexit.o(.ARM.Collect$$rtexit$$00000000)
    .ARM.Collect$$rtexit$$00000002           0x080002f0   Section        0  rtexit2.o(.ARM.Collect$$rtexit$$00000002)
    .ARM.Collect$$rtexit$$00000003           0x080002f0   Section        4  rtexit2.o(.ARM.Collect$$rtexit$$00000003)
    .ARM.Collect$$rtexit$$00000004           0x080002f4   Section        6  rtexit2.o(.ARM.Collect$$rtexit$$00000004)
    $v0                                      0x080002fc   Number         0  startup_stm32h563xx.o(.text)
    .text                                    0x080002fc   Section       68  startup_stm32h563xx.o(.text)
    .text                                    0x08000340   Section      240  lludivv7m.o(.text)
    .text                                    0x08000430   Section        0  noretval__2sprintf.o(.text)
    .text                                    0x08000458   Section        0  _printf_pad.o(.text)
    .text                                    0x080004a8   Section        0  _printf_dec.o(.text)
    .text                                    0x08000520   Section        0  _printf_hex_int.o(.text)
    .text                                    0x08000578   Section        0  __printf_flags_wp.o(.text)
    .text                                    0x080006b0   Section        0  strlen.o(.text)
    .text                                    0x080006ee   Section      138  rt_memcpy_v6.o(.text)
    .text                                    0x08000778   Section       16  aeabi_memset4.o(.text)
    .text                                    0x08000788   Section       68  rt_memclr.o(.text)
    .text                                    0x080007cc   Section       78  rt_memclr_w.o(.text)
    .text                                    0x0800081a   Section        0  heapauxi.o(.text)
    .text                                    0x08000820   Section        0  _printf_intcommon.o(.text)
    _printf_input_char                       0x080008d5   Thumb Code    10  _printf_char_common.o(.text)
    .text                                    0x080008d4   Section        0  _printf_char_common.o(.text)
    .text                                    0x08000904   Section        0  _sputc.o(.text)
    .text                                    0x0800090e   Section      100  rt_memcpy_w.o(.text)
    .text                                    0x08000974   Section        8  libspace.o(.text)
    .text                                    0x0800097c   Section        2  use_no_semi.o(.text)
    .text                                    0x0800097e   Section        0  indicate_semi.o(.text)
    .text                                    0x0800097e   Section       74  sys_stackheap_outer.o(.text)
    .text                                    0x080009c8   Section        0  exit.o(.text)
    .text                                    0x080009dc   Section        0  sys_exit.o(.text)
    [Anonymous Symbol]                       0x080009e8   Section        0  stm32h5xx_it.o(.text.BusFault_Handler)
    CH1_UART2_TxTaskFunction                 0x080009ed   Thumb Code    56  app_freertos.o(.text.CH1_UART2_TxTaskFunction)
    [Anonymous Symbol]                       0x080009ec   Section        0  app_freertos.o(.text.CH1_UART2_TxTaskFunction)
    CH2_UART4_RxTaskFunction                 0x08000a25   Thumb Code   144  app_freertos.o(.text.CH2_UART4_RxTaskFunction)
    [Anonymous Symbol]                       0x08000a24   Section        0  app_freertos.o(.text.CH2_UART4_RxTaskFunction)
    [Anonymous Symbol]                       0x08000ab4   Section        0  stm32h5xx_it.o(.text.DebugMon_Handler)
    [Anonymous Symbol]                       0x08000ab8   Section        0  draw.o(.text.Draw_ASCII)
    [Anonymous Symbol]                       0x08000bfc   Section        0  draw.o(.text.Draw_Clear)
    [Anonymous Symbol]                       0x08000c78   Section        0  draw.o(.text.Draw_Init)
    [Anonymous Symbol]                       0x08000c88   Section        0  draw.o(.text.Draw_String)
    [Anonymous Symbol]                       0x08000d44   Section        0  main.o(.text.Error_Handler)
    [Anonymous Symbol]                       0x08000d4c   Section        0  stm32h5xx_it.o(.text.GPDMA1_Channel0_IRQHandler)
    [Anonymous Symbol]                       0x08000d58   Section        0  stm32h5xx_it.o(.text.GPDMA1_Channel1_IRQHandler)
    [Anonymous Symbol]                       0x08000d64   Section        0  stm32h5xx_hal_dma_ex.o(.text.HAL_DMAEx_List_Start_IT)
    [Anonymous Symbol]                       0x08000e2c   Section        0  stm32h5xx_hal_dma.o(.text.HAL_DMA_Abort)
    [Anonymous Symbol]                       0x08000ed8   Section        0  stm32h5xx_hal_dma.o(.text.HAL_DMA_Abort_IT)
    [Anonymous Symbol]                       0x08000f08   Section        0  stm32h5xx_hal_dma.o(.text.HAL_DMA_ConfigChannelAttributes)
    [Anonymous Symbol]                       0x08000f50   Section        0  stm32h5xx_hal_dma.o(.text.HAL_DMA_GetError)
    [Anonymous Symbol]                       0x08000f54   Section        0  stm32h5xx_hal_dma.o(.text.HAL_DMA_IRQHandler)
    [Anonymous Symbol]                       0x08001114   Section        0  stm32h5xx_hal_dma.o(.text.HAL_DMA_Init)
    [Anonymous Symbol]                       0x0800166c   Section        0  stm32h5xx_hal_dma.o(.text.HAL_DMA_Start_IT)
    [Anonymous Symbol]                       0x08001714   Section        0  stm32h5xx_hal.o(.text.HAL_Delay)
    [Anonymous Symbol]                       0x0800173c   Section        0  stm32h5xx_hal_gpio.o(.text.HAL_GPIO_Init)
    [Anonymous Symbol]                       0x080018d4   Section        0  stm32h5xx_hal_gpio.o(.text.HAL_GPIO_WritePin)
    [Anonymous Symbol]                       0x080018e0   Section        0  stm32h5xx_hal.o(.text.HAL_GetTick)
    [Anonymous Symbol]                       0x080018ec   Section        0  stm32h5xx_hal_icache.o(.text.HAL_ICACHE_ConfigAssociativityMode)
    [Anonymous Symbol]                       0x0800190c   Section        0  stm32h5xx_hal_icache.o(.text.HAL_ICACHE_Enable)
    [Anonymous Symbol]                       0x08001920   Section        0  stm32h5xx_hal.o(.text.HAL_IncTick)
    [Anonymous Symbol]                       0x0800193c   Section        0  stm32h5xx_hal.o(.text.HAL_Init)
    [Anonymous Symbol]                       0x08001984   Section        0  stm32h5xx_hal_timebase_tim.o(.text.HAL_InitTick)
    [Anonymous Symbol]                       0x08001a30   Section        0  stm32h5xx_hal_msp.o(.text.HAL_MspInit)
    [Anonymous Symbol]                       0x08001a3c   Section        0  stm32h5xx_hal_cortex.o(.text.HAL_NVIC_EnableIRQ)
    [Anonymous Symbol]                       0x08001a5c   Section        0  stm32h5xx_hal_cortex.o(.text.HAL_NVIC_SetPriority)
    [Anonymous Symbol]                       0x08001ab4   Section        0  stm32h5xx_hal_cortex.o(.text.HAL_NVIC_SetPriorityGrouping)
    [Anonymous Symbol]                       0x08001ad4   Section        0  stm32h5xx_hal_rcc_ex.o(.text.HAL_RCCEx_GetPLL1ClockFreq)
    [Anonymous Symbol]                       0x08001c80   Section        0  stm32h5xx_hal_rcc_ex.o(.text.HAL_RCCEx_GetPLL2ClockFreq)
    [Anonymous Symbol]                       0x08001e2c   Section        0  stm32h5xx_hal_rcc_ex.o(.text.HAL_RCCEx_GetPLL3ClockFreq)
    [Anonymous Symbol]                       0x08001fd8   Section        0  stm32h5xx_hal_rcc_ex.o(.text.HAL_RCCEx_GetPeriphCLKFreq)
    [Anonymous Symbol]                       0x08002fcc   Section        0  stm32h5xx_hal_rcc_ex.o(.text.HAL_RCCEx_PeriphCLKConfig)
    [Anonymous Symbol]                       0x0800406c   Section        0  stm32h5xx_hal_rcc.o(.text.HAL_RCC_ClockConfig)
    [Anonymous Symbol]                       0x080042d0   Section        0  stm32h5xx_hal_rcc.o(.text.HAL_RCC_GetClockConfig)
    [Anonymous Symbol]                       0x08004314   Section        0  stm32h5xx_hal_rcc.o(.text.HAL_RCC_GetHCLKFreq)
    [Anonymous Symbol]                       0x08004344   Section        0  stm32h5xx_hal_rcc.o(.text.HAL_RCC_GetPCLK1Freq)
    [Anonymous Symbol]                       0x0800438c   Section        0  stm32h5xx_hal_rcc.o(.text.HAL_RCC_GetPCLK2Freq)
    [Anonymous Symbol]                       0x080043d4   Section        0  stm32h5xx_hal_rcc.o(.text.HAL_RCC_GetPCLK3Freq)
    [Anonymous Symbol]                       0x0800441c   Section        0  stm32h5xx_hal_rcc.o(.text.HAL_RCC_GetSysClockFreq)
    [Anonymous Symbol]                       0x08004544   Section        0  stm32h5xx_hal_rcc.o(.text.HAL_RCC_OscConfig)
    [Anonymous Symbol]                       0x08004b68   Section        0  stm32h5xx_hal_spi.o(.text.HAL_SPI_Init)
    [Anonymous Symbol]                       0x08004d94   Section        0  spi.o(.text.HAL_SPI_MspInit)
    [Anonymous Symbol]                       0x08004e68   Section        0  stm32h5xx_hal_spi.o(.text.HAL_SPI_Transmit)
    [Anonymous Symbol]                       0x08005230   Section        0  stm32h5xx_hal_tim_ex.o(.text.HAL_TIMEx_Break2Callback)
    [Anonymous Symbol]                       0x08005234   Section        0  stm32h5xx_hal_tim_ex.o(.text.HAL_TIMEx_BreakCallback)
    [Anonymous Symbol]                       0x08005238   Section        0  stm32h5xx_hal_tim_ex.o(.text.HAL_TIMEx_CommutCallback)
    [Anonymous Symbol]                       0x0800523c   Section        0  stm32h5xx_hal_tim_ex.o(.text.HAL_TIMEx_DirectionChangeCallback)
    [Anonymous Symbol]                       0x08005240   Section        0  stm32h5xx_hal_tim_ex.o(.text.HAL_TIMEx_EncoderIndexCallback)
    [Anonymous Symbol]                       0x08005244   Section        0  stm32h5xx_hal_tim_ex.o(.text.HAL_TIMEx_IndexErrorCallback)
    [Anonymous Symbol]                       0x08005248   Section        0  stm32h5xx_hal_tim_ex.o(.text.HAL_TIMEx_TransitionErrorCallback)
    [Anonymous Symbol]                       0x0800524c   Section        0  stm32h5xx_hal_tim.o(.text.HAL_TIM_Base_Init)
    [Anonymous Symbol]                       0x080052b0   Section        0  stm32h5xx_hal_tim.o(.text.HAL_TIM_Base_MspInit)
    [Anonymous Symbol]                       0x080052b4   Section        0  stm32h5xx_hal_tim.o(.text.HAL_TIM_Base_Start_IT)
    [Anonymous Symbol]                       0x080053e8   Section        0  stm32h5xx_hal_tim.o(.text.HAL_TIM_IC_CaptureCallback)
    [Anonymous Symbol]                       0x080053ec   Section        0  stm32h5xx_hal_tim.o(.text.HAL_TIM_IRQHandler)
    [Anonymous Symbol]                       0x080055ec   Section        0  stm32h5xx_hal_tim.o(.text.HAL_TIM_OC_DelayElapsedCallback)
    [Anonymous Symbol]                       0x080055f0   Section        0  stm32h5xx_hal_tim.o(.text.HAL_TIM_PWM_PulseFinishedCallback)
    [Anonymous Symbol]                       0x080055f4   Section        0  main.o(.text.HAL_TIM_PeriodElapsedCallback)
    [Anonymous Symbol]                       0x08005608   Section        0  stm32h5xx_hal_tim.o(.text.HAL_TIM_TriggerCallback)
    [Anonymous Symbol]                       0x0800560c   Section        0  stm32h5xx_hal_uart_ex.o(.text.HAL_UARTEx_EnableFifoMode)
    [Anonymous Symbol]                       0x08005688   Section        0  stm32h5xx_hal_uart_ex.o(.text.HAL_UARTEx_ReceiveToIdle_DMA)
    [Anonymous Symbol]                       0x08005740   Section        0  usart.o(.text.HAL_UARTEx_RxEventCallback)
    [Anonymous Symbol]                       0x08005790   Section        0  stm32h5xx_hal_uart_ex.o(.text.HAL_UARTEx_RxFifoFullCallback)
    [Anonymous Symbol]                       0x08005794   Section        0  stm32h5xx_hal_uart_ex.o(.text.HAL_UARTEx_SetRxFifoThreshold)
    [Anonymous Symbol]                       0x08005824   Section        0  stm32h5xx_hal_uart_ex.o(.text.HAL_UARTEx_SetTxFifoThreshold)
    [Anonymous Symbol]                       0x080058b4   Section        0  stm32h5xx_hal_uart_ex.o(.text.HAL_UARTEx_TxFifoEmptyCallback)
    [Anonymous Symbol]                       0x080058b8   Section        0  stm32h5xx_hal_uart_ex.o(.text.HAL_UARTEx_WakeupCallback)
    [Anonymous Symbol]                       0x080058bc   Section        0  stm32h5xx_hal_uart.o(.text.HAL_UART_DMAStop)
    [Anonymous Symbol]                       0x08005b58   Section        0  usart.o(.text.HAL_UART_ErrorCallback)
    [Anonymous Symbol]                       0x08005b80   Section        0  stm32h5xx_hal_uart.o(.text.HAL_UART_IRQHandler)
    [Anonymous Symbol]                       0x0800611c   Section        0  stm32h5xx_hal_uart.o(.text.HAL_UART_Init)
    [Anonymous Symbol]                       0x08006184   Section        0  usart.o(.text.HAL_UART_MspInit)
    [Anonymous Symbol]                       0x08006340   Section        0  usart.o(.text.HAL_UART_RxCpltCallback)
    [Anonymous Symbol]                       0x08006388   Section        0  stm32h5xx_hal_uart.o(.text.HAL_UART_RxHalfCpltCallback)
    [Anonymous Symbol]                       0x0800638c   Section        0  stm32h5xx_hal_uart.o(.text.HAL_UART_Transmit_DMA)
    [Anonymous Symbol]                       0x080064bc   Section        0  usart.o(.text.HAL_UART_TxCpltCallback)
    [Anonymous Symbol]                       0x080064d8   Section        0  stm32h5xx_hal_uart.o(.text.HAL_UART_TxHalfCpltCallback)
    [Anonymous Symbol]                       0x080064dc   Section        0  stm32h5xx_it.o(.text.HardFault_Handler)
    [Anonymous Symbol]                       0x080064e0   Section        0  spi_lcd.o(.text.LCD_GetInfo)
    [Anonymous Symbol]                       0x080064f4   Section        0  spi_lcd.o(.text.LCD_Init)
    [Anonymous Symbol]                       0x080078c4   Section        0  spi_lcd.o(.text.LCD_SetDataLine)
    [Anonymous Symbol]                       0x080078d8   Section        0  spi_lcd.o(.text.LCD_SetWindows)
    [Anonymous Symbol]                       0x08007b74   Section        0  spi_lcd.o(.text.LCD_WriteDatas)
    [Anonymous Symbol]                       0x08007bb4   Section        0  app_freertos.o(.text.MX_FREERTOS_Init)
    [Anonymous Symbol]                       0x08007c5c   Section        0  gpdma.o(.text.MX_GPDMA1_Init)
    [Anonymous Symbol]                       0x08007ca0   Section        0  gpio.o(.text.MX_GPIO_Init)
    [Anonymous Symbol]                       0x08007d80   Section        0  icache.o(.text.MX_ICACHE_Init)
    [Anonymous Symbol]                       0x08007da4   Section        0  spi.o(.text.MX_SPI2_Init)
    [Anonymous Symbol]                       0x08007e08   Section        0  usart.o(.text.MX_UART4_Init)
    [Anonymous Symbol]                       0x08007e8c   Section        0  usart.o(.text.MX_USART2_UART_Init)
    [Anonymous Symbol]                       0x08007f10   Section        0  stm32h5xx_it.o(.text.MemManage_Handler)
    [Anonymous Symbol]                       0x08007f14   Section        0  stm32h5xx_it.o(.text.NMI_Handler)
    [Anonymous Symbol]                       0x08007f20   Section        0  portasm.o(.text.PendSV_Handler)
    pxCurrentTCBConst                        0x08007f70   Number         0  portasm.o(.text.PendSV_Handler)
    RCCEx_PLL2_Config                        0x08007f75   Thumb Code   248  stm32h5xx_hal_rcc_ex.o(.text.RCCEx_PLL2_Config)
    [Anonymous Symbol]                       0x08007f74   Section        0  stm32h5xx_hal_rcc_ex.o(.text.RCCEx_PLL2_Config)
    RCCEx_PLL3_Config                        0x0800806d   Thumb Code   248  stm32h5xx_hal_rcc_ex.o(.text.RCCEx_PLL3_Config)
    [Anonymous Symbol]                       0x0800806c   Section        0  stm32h5xx_hal_rcc_ex.o(.text.RCCEx_PLL3_Config)
    SPILCDTaskFunction                       0x08008165   Thumb Code    52  app_freertos.o(.text.SPILCDTaskFunction)
    [Anonymous Symbol]                       0x08008164   Section        0  app_freertos.o(.text.SPILCDTaskFunction)
    SPI_CloseTransfer                        0x08008199   Thumb Code   200  stm32h5xx_hal_spi.o(.text.SPI_CloseTransfer)
    [Anonymous Symbol]                       0x08008198   Section        0  stm32h5xx_hal_spi.o(.text.SPI_CloseTransfer)
    [Anonymous Symbol]                       0x08008260   Section        0  portasm.o(.text.SVC_Handler)
    svchandler_address_const                 0x08008280   Number         0  portasm.o(.text.SVC_Handler)
    [Anonymous Symbol]                       0x08008284   Section        0  app_freertos.o(.text.StartDefaultTask)
    [Anonymous Symbol]                       0x080082b8   Section        0  cmsis_os2.o(.text.SysTick_Handler)
    [Anonymous Symbol]                       0x080082d8   Section        0  system_stm32h5xx.o(.text.SystemInit)
    [Anonymous Symbol]                       0x08008388   Section        0  stm32h5xx_it.o(.text.TIM6_IRQHandler)
    [Anonymous Symbol]                       0x08008394   Section        0  stm32h5xx_hal_tim.o(.text.TIM_Base_SetConfig)
    [Anonymous Symbol]                       0x0800864c   Section        0  usart.o(.text.UART4_GetData)
    [Anonymous Symbol]                       0x0800866c   Section        0  stm32h5xx_it.o(.text.UART4_IRQHandler)
    [Anonymous Symbol]                       0x08008678   Section        0  usart.o(.text.UART4_Rx_Start)
    [Anonymous Symbol]                       0x080086a8   Section        0  stm32h5xx_hal_uart.o(.text.UART_AdvFeatureConfig)
    [Anonymous Symbol]                       0x08008790   Section        0  stm32h5xx_hal_uart.o(.text.UART_CheckIdleState)
    UART_DMAAbortOnError                     0x080088fd   Thumb Code    16  stm32h5xx_hal_uart.o(.text.UART_DMAAbortOnError)
    [Anonymous Symbol]                       0x080088fc   Section        0  stm32h5xx_hal_uart.o(.text.UART_DMAAbortOnError)
    UART_DMAError                            0x0800890d   Thumb Code   490  stm32h5xx_hal_uart.o(.text.UART_DMAError)
    [Anonymous Symbol]                       0x0800890c   Section        0  stm32h5xx_hal_uart.o(.text.UART_DMAError)
    UART_DMAReceiveCplt                      0x08008af9   Thumb Code   276  stm32h5xx_hal_uart.o(.text.UART_DMAReceiveCplt)
    [Anonymous Symbol]                       0x08008af8   Section        0  stm32h5xx_hal_uart.o(.text.UART_DMAReceiveCplt)
    UART_DMARxHalfCplt                       0x08008c0d   Thumb Code    26  stm32h5xx_hal_uart.o(.text.UART_DMARxHalfCplt)
    [Anonymous Symbol]                       0x08008c0c   Section        0  stm32h5xx_hal_uart.o(.text.UART_DMARxHalfCplt)
    UART_DMATransmitCplt                     0x08008c29   Thumb Code   100  stm32h5xx_hal_uart.o(.text.UART_DMATransmitCplt)
    [Anonymous Symbol]                       0x08008c28   Section        0  stm32h5xx_hal_uart.o(.text.UART_DMATransmitCplt)
    UART_DMATxHalfCplt                       0x08008c8d   Thumb Code     6  stm32h5xx_hal_uart.o(.text.UART_DMATxHalfCplt)
    [Anonymous Symbol]                       0x08008c8c   Section        0  stm32h5xx_hal_uart.o(.text.UART_DMATxHalfCplt)
    [Anonymous Symbol]                       0x08008c94   Section        0  stm32h5xx_hal_uart.o(.text.UART_SetConfig)
    [Anonymous Symbol]                       0x08008fd0   Section        0  stm32h5xx_hal_uart.o(.text.UART_Start_Receive_DMA)
    [Anonymous Symbol]                       0x08009158   Section        0  stm32h5xx_hal_uart.o(.text.UART_WaitOnFlagUntilTimeout)
    [Anonymous Symbol]                       0x08009438   Section        0  stm32h5xx_it.o(.text.USART2_IRQHandler)
    [Anonymous Symbol]                       0x08009444   Section        0  stm32h5xx_it.o(.text.UsageFault_Handler)
    [Anonymous Symbol]                       0x08009448   Section        0  usart.o(.text.Wait_UART2_Tx_Complete)
    [Anonymous Symbol]                       0x08009474   Section        0  main.o(.text.main)
    [Anonymous Symbol]                       0x0800958c   Section        0  cmsis_os2.o(.text.osKernelInitialize)
    [Anonymous Symbol]                       0x080095d8   Section        0  cmsis_os2.o(.text.osKernelStart)
    [Anonymous Symbol]                       0x08009634   Section        0  cmsis_os2.o(.text.osThreadNew)
    prvAddCurrentTaskToDelayedList           0x08009709   Thumb Code   134  tasks.o(.text.prvAddCurrentTaskToDelayedList)
    [Anonymous Symbol]                       0x08009708   Section        0  tasks.o(.text.prvAddCurrentTaskToDelayedList)
    prvAddNewTaskToReadyList                 0x08009791   Thumb Code   676  tasks.o(.text.prvAddNewTaskToReadyList)
    [Anonymous Symbol]                       0x08009790   Section        0  tasks.o(.text.prvAddNewTaskToReadyList)
    prvIdleTask                              0x08009a35   Thumb Code   102  tasks.o(.text.prvIdleTask)
    [Anonymous Symbol]                       0x08009a34   Section        0  tasks.o(.text.prvIdleTask)
    prvInitialiseNewTask                     0x08009a9d   Thumb Code   280  tasks.o(.text.prvInitialiseNewTask)
    [Anonymous Symbol]                       0x08009a9c   Section        0  tasks.o(.text.prvInitialiseNewTask)
    prvSampleTimeNow                         0x08009bb5   Thumb Code   160  timers.o(.text.prvSampleTimeNow)
    [Anonymous Symbol]                       0x08009bb4   Section        0  timers.o(.text.prvSampleTimeNow)
    prvTaskExitError                         0x08009c55   Thumb Code    54  port.o(.text.prvTaskExitError)
    [Anonymous Symbol]                       0x08009c54   Section        0  port.o(.text.prvTaskExitError)
    prvTimerTask                             0x08009c8d   Thumb Code   502  timers.o(.text.prvTimerTask)
    [Anonymous Symbol]                       0x08009c8c   Section        0  timers.o(.text.prvTimerTask)
    prvUnlockQueue                           0x08009e85   Thumb Code   116  queue.o(.text.prvUnlockQueue)
    [Anonymous Symbol]                       0x08009e84   Section        0  queue.o(.text.prvUnlockQueue)
    [Anonymous Symbol]                       0x08009ef8   Section        0  heap_4.o(.text.pvPortMalloc)
    [Anonymous Symbol]                       0x0800a0a8   Section        0  port.o(.text.pxPortInitialiseStack)
    [Anonymous Symbol]                       0x0800a118   Section        0  portasm.o(.text.ulSetInterruptMask)
    [Anonymous Symbol]                       0x0800a130   Section        0  list.o(.text.uxListRemove)
    [Anonymous Symbol]                       0x0800a154   Section        0  tasks.o(.text.uxTaskGetNumberOfTasks)
    [Anonymous Symbol]                       0x0800a160   Section        0  cmsis_os2.o(.text.vApplicationGetIdleTaskMemory)
    [Anonymous Symbol]                       0x0800a17c   Section        0  cmsis_os2.o(.text.vApplicationGetTimerTaskMemory)
    [Anonymous Symbol]                       0x0800a198   Section        0  portasm.o(.text.vClearInterruptMask)
    [Anonymous Symbol]                       0x0800a1a8   Section        0  list.o(.text.vListInitialise)
    [Anonymous Symbol]                       0x0800a1c0   Section        0  list.o(.text.vListInitialiseItem)
    [Anonymous Symbol]                       0x0800a1c8   Section        0  list.o(.text.vListInsert)
    [Anonymous Symbol]                       0x0800a228   Section        0  port.o(.text.vPortEnterCritical)
    [Anonymous Symbol]                       0x0800a248   Section        0  port.o(.text.vPortExitCritical)
    [Anonymous Symbol]                       0x0800a278   Section        0  heap_4.o(.text.vPortFree)
    __tagsym$$used.0                         0x0800a33c   Number         0  port.o(.text.vPortSVCHandler_C)
    [Anonymous Symbol]                       0x0800a33c   Section        0  port.o(.text.vPortSVCHandler_C)
    [Anonymous Symbol]                       0x0800a358   Section        0  port.o(.text.vPortSetupTimerInterrupt)
    [Anonymous Symbol]                       0x0800a38c   Section        0  port.o(.text.vPortYield)
    [Anonymous Symbol]                       0x0800a3a4   Section        0  queue.o(.text.vQueueAddToRegistry)
    [Anonymous Symbol]                       0x0800a4b8   Section        0  queue.o(.text.vQueueWaitForMessageRestricted)
    [Anonymous Symbol]                       0x0800a510   Section        0  portasm.o(.text.vRestoreContextOfFirstTask)
    pxCurrentTCBConst2                       0x0800a540   Number         0  portasm.o(.text.vRestoreContextOfFirstTask)
    [Anonymous Symbol]                       0x0800a550   Section        0  portasm.o(.text.vStartFirstTask)
    xVTORConst                               0x0800a570   Number         0  portasm.o(.text.vStartFirstTask)
    [Anonymous Symbol]                       0x0800a574   Section        0  tasks.o(.text.vTaskDelay)
    [Anonymous Symbol]                       0x0800a5e4   Section        0  tasks.o(.text.vTaskInternalSetTimeOutState)
    [Anonymous Symbol]                       0x0800a5f8   Section        0  tasks.o(.text.vTaskMissedYield)
    [Anonymous Symbol]                       0x0800a608   Section        0  tasks.o(.text.vTaskPlaceOnEventList)
    [Anonymous Symbol]                       0x0800a634   Section        0  tasks.o(.text.vTaskPlaceOnEventListRestricted)
    [Anonymous Symbol]                       0x0800a6c8   Section        0  tasks.o(.text.vTaskStartScheduler)
    [Anonymous Symbol]                       0x0800a790   Section        0  tasks.o(.text.vTaskSuspendAll)
    __tagsym$$used.0                         0x0800a7a0   Number         0  tasks.o(.text.vTaskSwitchContext)
    [Anonymous Symbol]                       0x0800a7a0   Section        0  tasks.o(.text.vTaskSwitchContext)
    [Anonymous Symbol]                       0x0800a848   Section        0  port.o(.text.xPortStartScheduler)
    [Anonymous Symbol]                       0x0800a8a4   Section        0  port.o(.text.xPortSysTickHandler)
    [Anonymous Symbol]                       0x0800a8cc   Section        0  queue.o(.text.xQueueGenericCreate)
    [Anonymous Symbol]                       0x0800a958   Section        0  queue.o(.text.xQueueGenericCreateStatic)
    [Anonymous Symbol]                       0x0800a9f8   Section        0  queue.o(.text.xQueueGenericSendFromISR)
    [Anonymous Symbol]                       0x0800ab48   Section        0  queue.o(.text.xQueueReceive)
    [Anonymous Symbol]                       0x0800aca4   Section        0  tasks.o(.text.xTaskCheckForTimeOut)
    [Anonymous Symbol]                       0x0800ad2c   Section        0  tasks.o(.text.xTaskCreate)
    [Anonymous Symbol]                       0x0800ad90   Section        0  tasks.o(.text.xTaskCreateStatic)
    [Anonymous Symbol]                       0x0800ae0c   Section        0  tasks.o(.text.xTaskGetSchedulerState)
    [Anonymous Symbol]                       0x0800ae2c   Section        0  tasks.o(.text.xTaskGetTickCount)
    [Anonymous Symbol]                       0x0800ae38   Section        0  tasks.o(.text.xTaskIncrementTick)
    [Anonymous Symbol]                       0x0800afa8   Section        0  tasks.o(.text.xTaskPriorityDisinherit)
    [Anonymous Symbol]                       0x0800b03c   Section        0  tasks.o(.text.xTaskRemoveFromEventList)
    [Anonymous Symbol]                       0x0800b118   Section        0  tasks.o(.text.xTaskResumeAll)
    [Anonymous Symbol]                       0x0800b240   Section        0  timers.o(.text.xTimerCreateTimerTask)
    i._is_digit                              0x0800b2ec   Section        0  __printf_wp.o(i._is_digit)
    $v0                                      0x0800b2fa   Number         0  fpinit.o(x$fpl$fpinit)
    x$fpl$fpinit                             0x0800b2fa   Section       26  fpinit.o(x$fpl$fpinit)
    uc_hextab                                0x0800b314   Data          20  _printf_hex_int.o(.constdata)
    .constdata                               0x0800b314   Section       40  _printf_hex_int.o(.constdata)
    lc_hextab                                0x0800b328   Data          20  _printf_hex_int.o(.constdata)
    maptable                                 0x0800b33c   Data          17  __printf_flags_wp.o(.constdata)
    .constdata                               0x0800b33c   Section       17  __printf_flags_wp.o(.constdata)
    UARTEx_SetNbDataToProcess.numerator      0x0800b37e   Data           8  stm32h5xx_hal_uart_ex.o(.rodata.cst8)
    UARTEx_SetNbDataToProcess.denominator    0x0800b386   Data           8  stm32h5xx_hal_uart_ex.o(.rodata.cst8)
    .L.str                                   0x0800c3b4   Data          12  app_freertos.o(.rodata.str1.1)
    [Anonymous Symbol]                       0x0800c3b4   Section        0  app_freertos.o(.rodata.str1.1)
    .L.str.1                                 0x0800c3c0   Data           5  timers.o(.rodata.str1.1)
    [Anonymous Symbol]                       0x0800c3c0   Section        0  timers.o(.rodata.str1.1)
    .L_MergedGlobals                         0x20000000   Data           8  stm32h5xx_hal.o(.data..L_MergedGlobals)
    [Anonymous Symbol]                       0x20000000   Section        0  stm32h5xx_hal.o(.data..L_MergedGlobals)
    ulCriticalNesting                        0x2000000c   Data           4  port.o(.data.ulCriticalNesting)
    [Anonymous Symbol]                       0x2000000c   Section        0  port.o(.data.ulCriticalNesting)
    .bss                                     0x20000010   Section       96  libspace.o(.bss)
    .L_MergedGlobals                         0x20000070   Data         108  usart.o(.bss..L_MergedGlobals)
    g_uart4_rx_complete                      0x20000070   Data           4  usart.o(.bss..L_MergedGlobals)
    [Anonymous Symbol]                       0x20000070   Section        0  usart.o(.bss..L_MergedGlobals)
    g_xUART4_RX_Queue                        0x20000074   Data           4  usart.o(.bss..L_MergedGlobals)
    g_uart4_rx_buf                           0x20000078   Data         100  usart.o(.bss..L_MergedGlobals)
    .L_MergedGlobals                         0x200000dc   Data          12  draw.o(.bss..L_MergedGlobals)
    g_lcd_width                              0x200000dc   Data           4  draw.o(.bss..L_MergedGlobals)
    [Anonymous Symbol]                       0x200000dc   Section        0  draw.o(.bss..L_MergedGlobals)
    g_lcd_height                             0x200000e0   Data           4  draw.o(.bss..L_MergedGlobals)
    Draw_ChineseFont.buf                     0x200000e4   Data           4  draw.o(.bss..L_MergedGlobals)
    .L_MergedGlobals                         0x200000e8   Data           8  spi_lcd.o(.bss..L_MergedGlobals)
    g_lcd_height                             0x200000e8   Data           4  spi_lcd.o(.bss..L_MergedGlobals)
    [Anonymous Symbol]                       0x200000e8   Section        0  spi_lcd.o(.bss..L_MergedGlobals)
    g_lcd_width                              0x200000ec   Data           4  spi_lcd.o(.bss..L_MergedGlobals)
    .L_MergedGlobals                         0x200000f0   Data         116  tasks.o(.bss..L_MergedGlobals)
    uxTaskNumber                             0x200000f0   Data           4  tasks.o(.bss..L_MergedGlobals)
    [Anonymous Symbol]                       0x200000f0   Section        0  tasks.o(.bss..L_MergedGlobals)
    uxDeletedTasksWaitingCleanUp             0x200000f4   Data           4  tasks.o(.bss..L_MergedGlobals)
    uxCurrentNumberOfTasks                   0x200000f8   Data           4  tasks.o(.bss..L_MergedGlobals)
    xSchedulerRunning                        0x200000fc   Data           4  tasks.o(.bss..L_MergedGlobals)
    uxSchedulerSuspended                     0x20000100   Data           4  tasks.o(.bss..L_MergedGlobals)
    xTickCount                               0x20000104   Data           4  tasks.o(.bss..L_MergedGlobals)
    pxDelayedTaskList                        0x20000108   Data           4  tasks.o(.bss..L_MergedGlobals)
    pxOverflowDelayedTaskList                0x2000010c   Data           4  tasks.o(.bss..L_MergedGlobals)
    uxTopReadyPriority                       0x20000110   Data           4  tasks.o(.bss..L_MergedGlobals)
    xYieldPending                            0x20000114   Data           4  tasks.o(.bss..L_MergedGlobals)
    xIdleTaskHandle                          0x20000118   Data           4  tasks.o(.bss..L_MergedGlobals)
    xNextTaskUnblockTime                     0x2000011c   Data           4  tasks.o(.bss..L_MergedGlobals)
    xPendedTicks                             0x20000120   Data           4  tasks.o(.bss..L_MergedGlobals)
    xNumOfOverflows                          0x20000124   Data           4  tasks.o(.bss..L_MergedGlobals)
    xTasksWaitingTermination                 0x20000128   Data          20  tasks.o(.bss..L_MergedGlobals)
    xSuspendedTaskList                       0x2000013c   Data          20  tasks.o(.bss..L_MergedGlobals)
    xPendingReadyList                        0x20000150   Data          20  tasks.o(.bss..L_MergedGlobals)
    .L_MergedGlobals                         0x20000164   Data          60  timers.o(.bss..L_MergedGlobals)
    xTimerQueue                              0x20000164   Data           4  timers.o(.bss..L_MergedGlobals)
    [Anonymous Symbol]                       0x20000164   Section        0  timers.o(.bss..L_MergedGlobals)
    xTimerTaskHandle                         0x20000168   Data           4  timers.o(.bss..L_MergedGlobals)
    pxCurrentTimerList                       0x2000016c   Data           4  timers.o(.bss..L_MergedGlobals)
    pxOverflowTimerList                      0x20000170   Data           4  timers.o(.bss..L_MergedGlobals)
    prvSampleTimeNow.xLastTime               0x20000174   Data           4  timers.o(.bss..L_MergedGlobals)
    xActiveTimerList1                        0x20000178   Data          20  timers.o(.bss..L_MergedGlobals)
    xActiveTimerList2                        0x2000018c   Data          20  timers.o(.bss..L_MergedGlobals)
    .L_MergedGlobals                         0x200001a0   Data          28  heap_4.o(.bss..L_MergedGlobals)
    pxEnd                                    0x200001a0   Data           4  heap_4.o(.bss..L_MergedGlobals)
    [Anonymous Symbol]                       0x200001a0   Section        0  heap_4.o(.bss..L_MergedGlobals)
    xFreeBytesRemaining                      0x200001a4   Data           4  heap_4.o(.bss..L_MergedGlobals)
    xMinimumEverFreeBytesRemaining           0x200001a8   Data           4  heap_4.o(.bss..L_MergedGlobals)
    xNumberOfSuccessfulAllocations           0x200001ac   Data           4  heap_4.o(.bss..L_MergedGlobals)
    xNumberOfSuccessfulFrees                 0x200001b0   Data           4  heap_4.o(.bss..L_MergedGlobals)
    xStart                                   0x200001b4   Data           8  heap_4.o(.bss..L_MergedGlobals)
    .L_MergedGlobals.1                       0x200001bc   Data          40  tasks.o(.bss..L_MergedGlobals.1)
    xDelayedTaskList1                        0x200001bc   Data          20  tasks.o(.bss..L_MergedGlobals.1)
    [Anonymous Symbol]                       0x200001bc   Section        0  tasks.o(.bss..L_MergedGlobals.1)
    xDelayedTaskList2                        0x200001d0   Data          20  tasks.o(.bss..L_MergedGlobals.1)
    KernelState                              0x200001e4   Data           4  cmsis_os2.o(.bss.KernelState)
    [Anonymous Symbol]                       0x200001e4   Section        0  cmsis_os2.o(.bss.KernelState)
    g_uart2_tx_complete                      0x200001ec   Data           4  usart.o(.bss.g_uart2_tx_complete)
    [Anonymous Symbol]                       0x200001ec   Section        0  usart.o(.bss.g_uart2_tx_complete)
    prvCheckForValidListAndQueue.ucStaticTimerQueueStorage 0x200004e4   Data         160  timers.o(.bss.prvCheckForValidListAndQueue.ucStaticTimerQueueStorage)
    [Anonymous Symbol]                       0x200004e4   Section        0  timers.o(.bss.prvCheckForValidListAndQueue.ucStaticTimerQueueStorage)
    prvCheckForValidListAndQueue.xStaticTimerQueue 0x20000584   Data          80  timers.o(.bss.prvCheckForValidListAndQueue.xStaticTimerQueue)
    [Anonymous Symbol]                       0x20000584   Section        0  timers.o(.bss.prvCheckForValidListAndQueue.xStaticTimerQueue)
    __tagsym$$used.1                         0x200005d4   Number         0  tasks.o(.bss.pxCurrentTCB)
    pxReadyTasksLists                        0x200005d8   Data        1120  tasks.o(.bss.pxReadyTasksLists)
    [Anonymous Symbol]                       0x200005d8   Section        0  tasks.o(.bss.pxReadyTasksLists)
    ucHeap                                   0x20000a38   Data        8192  heap_4.o(.bss.ucHeap)
    [Anonymous Symbol]                       0x20000a38   Section        0  heap_4.o(.bss.ucHeap)
    vApplicationGetIdleTaskMemory.Idle_Stack 0x20002a3c   Data         512  cmsis_os2.o(.bss.vApplicationGetIdleTaskMemory.Idle_Stack)
    [Anonymous Symbol]                       0x20002a3c   Section        0  cmsis_os2.o(.bss.vApplicationGetIdleTaskMemory.Idle_Stack)
    vApplicationGetIdleTaskMemory.Idle_TCB   0x20002c3c   Data          92  cmsis_os2.o(.bss.vApplicationGetIdleTaskMemory.Idle_TCB)
    [Anonymous Symbol]                       0x20002c3c   Section        0  cmsis_os2.o(.bss.vApplicationGetIdleTaskMemory.Idle_TCB)
    vApplicationGetTimerTaskMemory.Timer_Stack 0x20002c98   Data         512  cmsis_os2.o(.bss.vApplicationGetTimerTaskMemory.Timer_Stack)
    [Anonymous Symbol]                       0x20002c98   Section        0  cmsis_os2.o(.bss.vApplicationGetTimerTaskMemory.Timer_Stack)
    vApplicationGetTimerTaskMemory.Timer_TCB 0x20002e98   Data          92  cmsis_os2.o(.bss.vApplicationGetTimerTaskMemory.Timer_TCB)
    [Anonymous Symbol]                       0x20002e98   Section        0  cmsis_os2.o(.bss.vApplicationGetTimerTaskMemory.Timer_TCB)
    Heap_Mem                                 0x20002f38   Data        8192  startup_stm32h563xx.o(HEAP)
    HEAP                                     0x20002f38   Section     8192  startup_stm32h563xx.o(HEAP)
    Stack_Mem                                0x20004f38   Data        1024  startup_stm32h563xx.o(STACK)
    STACK                                    0x20004f38   Section     1024  startup_stm32h563xx.o(STACK)
    __initial_sp                             0x20005338   Data           0  startup_stm32h563xx.o(STACK)

    Global Symbols

    Symbol Name                              Value     Ov Type        Size  Object(Section)

    BuildAttributes$$THM_ISAv4$E$P$D$K$B$S$7EM$8M$VFPi5$EXTD16$VFPS$VFMA$PE$A:L22UL41UL21$X:L11$S22US41US21$IEEE1$IW$~IW$USESV6$~STKCKD$USESV7$~SHL$OTIME$ROPI$EBA8$UX$STANDARDLIB$REQ8$PRES8$EABIv2 0x00000000   Number         0  anon$$obj.o ABSOLUTE
    _printf_flags                            0x00000000   Number         0  printf_stubs.o ABSOLUTE
    _printf_return_value                     0x00000000   Number         0  printf_stubs.o ABSOLUTE
    _printf_sizespec                         0x00000000   Number         0  printf_stubs.o ABSOLUTE
    _printf_widthprec                        0x00000000   Number         0  printf_stubs.o ABSOLUTE
    __ARM_exceptions_init                     - Undefined Weak Reference
    __alloca_initialize                       - Undefined Weak Reference
    __arm_preinit_                            - Undefined Weak Reference
    __cpp_initialize__aeabi_                  - Undefined Weak Reference
    __cxa_finalize                            - Undefined Weak Reference
    __rt_locale                               - Undefined Weak Reference
    __sigvec_lookup                           - Undefined Weak Reference
    __user_heap_extent                        - Undefined Weak Reference
    _atexit_init                              - Undefined Weak Reference
    _call_atexit_fns                          - Undefined Weak Reference
    _clock_init                               - Undefined Weak Reference
    _fp_trap_init                             - Undefined Weak Reference
    _fp_trap_shutdown                         - Undefined Weak Reference
    _get_lc_collate                           - Undefined Weak Reference
    _get_lc_ctype                             - Undefined Weak Reference
    _get_lc_monetary                          - Undefined Weak Reference
    _get_lc_numeric                           - Undefined Weak Reference
    _get_lc_time                              - Undefined Weak Reference
    _getenv_init                              - Undefined Weak Reference
    _handle_redirection                       - Undefined Weak Reference
    _initio                                   - Undefined Weak Reference
    _mutex_acquire                            - Undefined Weak Reference
    _mutex_free                               - Undefined Weak Reference
    _mutex_release                            - Undefined Weak Reference
    _printf_truncate_signed                   - Undefined Weak Reference
    _printf_truncate_unsigned                 - Undefined Weak Reference
    _rand_init                                - Undefined Weak Reference
    _signal_finish                            - Undefined Weak Reference
    _signal_init                              - Undefined Weak Reference
    _terminateio                              - Undefined Weak Reference
    __Vectors_Size                           0x0000024c   Number         0  startup_stm32h563xx.o ABSOLUTE
    __Vectors                                0x08000000   Data           4  startup_stm32h563xx.o(RESET)
    __Vectors_End                            0x0800024c   Data           0  startup_stm32h563xx.o(RESET)
    __main                                   0x0800024d   Thumb Code     8  __main.o(!!!main)
    __scatterload                            0x08000255   Thumb Code     0  __scatter.o(!!!scatter)
    __scatterload_rt2                        0x08000255   Thumb Code    44  __scatter.o(!!!scatter)
    __scatterload_rt2_thumb_only             0x08000255   Thumb Code     0  __scatter.o(!!!scatter)
    __scatterload_null                       0x08000263   Thumb Code     0  __scatter.o(!!!scatter)
    __scatterload_copy                       0x08000289   Thumb Code    26  __scatter_copy.o(!!handler_copy)
    __scatterload_zeroinit                   0x080002a5   Thumb Code    28  __scatter_zi.o(!!handler_zi)
    _printf_d                                0x080002c1   Thumb Code     0  _printf_d.o(.ARM.Collect$$_printf_percent$$00000009)
    _printf_percent                          0x080002c1   Thumb Code     0  _printf_percent.o(.ARM.Collect$$_printf_percent$$00000000)
    _printf_x                                0x080002c7   Thumb Code     0  _printf_x.o(.ARM.Collect$$_printf_percent$$0000000C)
    _printf_percent_end                      0x080002cd   Thumb Code     0  _printf_percent_end.o(.ARM.Collect$$_printf_percent$$00000017)
    __rt_lib_init                            0x080002d1   Thumb Code     0  libinit.o(.ARM.Collect$$libinit$$00000000)
    __rt_lib_init_fp_1                       0x080002d3   Thumb Code     0  libinit2.o(.ARM.Collect$$libinit$$00000001)
    __rt_lib_init_alloca_1                   0x080002d7   Thumb Code     0  libinit2.o(.ARM.Collect$$libinit$$0000002E)
    __rt_lib_init_argv_1                     0x080002d7   Thumb Code     0  libinit2.o(.ARM.Collect$$libinit$$0000002C)
    __rt_lib_init_atexit_1                   0x080002d7   Thumb Code     0  libinit2.o(.ARM.Collect$$libinit$$0000001B)
    __rt_lib_init_clock_1                    0x080002d7   Thumb Code     0  libinit2.o(.ARM.Collect$$libinit$$00000021)
    __rt_lib_init_cpp_1                      0x080002d7   Thumb Code     0  libinit2.o(.ARM.Collect$$libinit$$00000032)
    __rt_lib_init_exceptions_1               0x080002d7   Thumb Code     0  libinit2.o(.ARM.Collect$$libinit$$00000030)
    __rt_lib_init_fp_trap_1                  0x080002d7   Thumb Code     0  libinit2.o(.ARM.Collect$$libinit$$0000001F)
    __rt_lib_init_getenv_1                   0x080002d7   Thumb Code     0  libinit2.o(.ARM.Collect$$libinit$$00000023)
    __rt_lib_init_heap_1                     0x080002d7   Thumb Code     0  libinit2.o(.ARM.Collect$$libinit$$0000000A)
    __rt_lib_init_lc_collate_1               0x080002d7   Thumb Code     0  libinit2.o(.ARM.Collect$$libinit$$00000011)
    __rt_lib_init_lc_ctype_1                 0x080002d7   Thumb Code     0  libinit2.o(.ARM.Collect$$libinit$$00000013)
    __rt_lib_init_lc_monetary_1              0x080002d7   Thumb Code     0  libinit2.o(.ARM.Collect$$libinit$$00000015)
    __rt_lib_init_lc_numeric_1               0x080002d7   Thumb Code     0  libinit2.o(.ARM.Collect$$libinit$$00000017)
    __rt_lib_init_lc_time_1                  0x080002d7   Thumb Code     0  libinit2.o(.ARM.Collect$$libinit$$00000019)
    __rt_lib_init_preinit_1                  0x080002d7   Thumb Code     0  libinit2.o(.ARM.Collect$$libinit$$00000004)
    __rt_lib_init_rand_1                     0x080002d7   Thumb Code     0  libinit2.o(.ARM.Collect$$libinit$$0000000E)
    __rt_lib_init_return                     0x080002d7   Thumb Code     0  libinit2.o(.ARM.Collect$$libinit$$00000033)
    __rt_lib_init_signal_1                   0x080002d7   Thumb Code     0  libinit2.o(.ARM.Collect$$libinit$$0000001D)
    __rt_lib_init_stdio_1                    0x080002d7   Thumb Code     0  libinit2.o(.ARM.Collect$$libinit$$00000025)
    __rt_lib_init_user_alloc_1               0x080002d7   Thumb Code     0  libinit2.o(.ARM.Collect$$libinit$$0000000C)
    __rt_lib_shutdown                        0x080002d9   Thumb Code     0  libshutdown.o(.ARM.Collect$$libshutdown$$00000000)
    __rt_lib_shutdown_cpp_1                  0x080002db   Thumb Code     0  libshutdown2.o(.ARM.Collect$$libshutdown$$00000002)
    __rt_lib_shutdown_fp_trap_1              0x080002db   Thumb Code     0  libshutdown2.o(.ARM.Collect$$libshutdown$$00000007)
    __rt_lib_shutdown_heap_1                 0x080002db   Thumb Code     0  libshutdown2.o(.ARM.Collect$$libshutdown$$0000000F)
    __rt_lib_shutdown_return                 0x080002db   Thumb Code     0  libshutdown2.o(.ARM.Collect$$libshutdown$$00000010)
    __rt_lib_shutdown_signal_1               0x080002db   Thumb Code     0  libshutdown2.o(.ARM.Collect$$libshutdown$$0000000A)
    __rt_lib_shutdown_stdio_1                0x080002db   Thumb Code     0  libshutdown2.o(.ARM.Collect$$libshutdown$$00000004)
    __rt_lib_shutdown_user_alloc_1           0x080002db   Thumb Code     0  libshutdown2.o(.ARM.Collect$$libshutdown$$0000000C)
    __rt_entry                               0x080002dd   Thumb Code     0  __rtentry.o(.ARM.Collect$$rtentry$$00000000)
    __rt_entry_presh_1                       0x080002dd   Thumb Code     0  __rtentry2.o(.ARM.Collect$$rtentry$$00000002)
    __rt_entry_sh                            0x080002dd   Thumb Code     0  __rtentry4.o(.ARM.Collect$$rtentry$$00000004)
    __rt_entry_li                            0x080002e3   Thumb Code     0  __rtentry2.o(.ARM.Collect$$rtentry$$0000000A)
    __rt_entry_postsh_1                      0x080002e3   Thumb Code     0  __rtentry2.o(.ARM.Collect$$rtentry$$00000009)
    __rt_entry_main                          0x080002e7   Thumb Code     0  __rtentry2.o(.ARM.Collect$$rtentry$$0000000D)
    __rt_entry_postli_1                      0x080002e7   Thumb Code     0  __rtentry2.o(.ARM.Collect$$rtentry$$0000000C)
    __rt_exit                                0x080002ef   Thumb Code     0  rtexit.o(.ARM.Collect$$rtexit$$00000000)
    __rt_exit_ls                             0x080002f1   Thumb Code     0  rtexit2.o(.ARM.Collect$$rtexit$$00000003)
    __rt_exit_prels_1                        0x080002f1   Thumb Code     0  rtexit2.o(.ARM.Collect$$rtexit$$00000002)
    __rt_exit_exit                           0x080002f5   Thumb Code     0  rtexit2.o(.ARM.Collect$$rtexit$$00000004)
    Reset_Handler                            0x080002fd   Thumb Code     8  startup_stm32h563xx.o(.text)
    SecureFault_Handler                      0x0800030f   Thumb Code     2  startup_stm32h563xx.o(.text)
    ADC1_IRQHandler                          0x08000319   Thumb Code     0  startup_stm32h563xx.o(.text)
    ADC2_IRQHandler                          0x08000319   Thumb Code     0  startup_stm32h563xx.o(.text)
    CEC_IRQHandler                           0x08000319   Thumb Code     0  startup_stm32h563xx.o(.text)
    CORDIC_IRQHandler                        0x08000319   Thumb Code     0  startup_stm32h563xx.o(.text)
    CRS_IRQHandler                           0x08000319   Thumb Code     0  startup_stm32h563xx.o(.text)
    DAC1_IRQHandler                          0x08000319   Thumb Code     0  startup_stm32h563xx.o(.text)
    DCACHE1_IRQHandler                       0x08000319   Thumb Code     0  startup_stm32h563xx.o(.text)
    DCMI_PSSI_IRQHandler                     0x08000319   Thumb Code     0  startup_stm32h563xx.o(.text)
    DTS_IRQHandler                           0x08000319   Thumb Code     0  startup_stm32h563xx.o(.text)
    ETH_IRQHandler                           0x08000319   Thumb Code     0  startup_stm32h563xx.o(.text)
    ETH_WKUP_IRQHandler                      0x08000319   Thumb Code     0  startup_stm32h563xx.o(.text)
    EXTI0_IRQHandler                         0x08000319   Thumb Code     0  startup_stm32h563xx.o(.text)
    EXTI10_IRQHandler                        0x08000319   Thumb Code     0  startup_stm32h563xx.o(.text)
    EXTI11_IRQHandler                        0x08000319   Thumb Code     0  startup_stm32h563xx.o(.text)
    EXTI12_IRQHandler                        0x08000319   Thumb Code     0  startup_stm32h563xx.o(.text)
    EXTI13_IRQHandler                        0x08000319   Thumb Code     0  startup_stm32h563xx.o(.text)
    EXTI14_IRQHandler                        0x08000319   Thumb Code     0  startup_stm32h563xx.o(.text)
    EXTI15_IRQHandler                        0x08000319   Thumb Code     0  startup_stm32h563xx.o(.text)
    EXTI1_IRQHandler                         0x08000319   Thumb Code     0  startup_stm32h563xx.o(.text)
    EXTI2_IRQHandler                         0x08000319   Thumb Code     0  startup_stm32h563xx.o(.text)
    EXTI3_IRQHandler                         0x08000319   Thumb Code     0  startup_stm32h563xx.o(.text)
    EXTI4_IRQHandler                         0x08000319   Thumb Code     0  startup_stm32h563xx.o(.text)
    EXTI5_IRQHandler                         0x08000319   Thumb Code     0  startup_stm32h563xx.o(.text)
    EXTI6_IRQHandler                         0x08000319   Thumb Code     0  startup_stm32h563xx.o(.text)
    EXTI7_IRQHandler                         0x08000319   Thumb Code     0  startup_stm32h563xx.o(.text)
    EXTI8_IRQHandler                         0x08000319   Thumb Code     0  startup_stm32h563xx.o(.text)
    EXTI9_IRQHandler                         0x08000319   Thumb Code     0  startup_stm32h563xx.o(.text)
    FDCAN1_IT0_IRQHandler                    0x08000319   Thumb Code     0  startup_stm32h563xx.o(.text)
    FDCAN1_IT1_IRQHandler                    0x08000319   Thumb Code     0  startup_stm32h563xx.o(.text)
    FDCAN2_IT0_IRQHandler                    0x08000319   Thumb Code     0  startup_stm32h563xx.o(.text)
    FDCAN2_IT1_IRQHandler                    0x08000319   Thumb Code     0  startup_stm32h563xx.o(.text)
    FLASH_IRQHandler                         0x08000319   Thumb Code     0  startup_stm32h563xx.o(.text)
    FLASH_S_IRQHandler                       0x08000319   Thumb Code     0  startup_stm32h563xx.o(.text)
    FMAC_IRQHandler                          0x08000319   Thumb Code     0  startup_stm32h563xx.o(.text)
    FMC_IRQHandler                           0x08000319   Thumb Code     0  startup_stm32h563xx.o(.text)
    FPU_IRQHandler                           0x08000319   Thumb Code     0  startup_stm32h563xx.o(.text)
    GPDMA1_Channel2_IRQHandler               0x08000319   Thumb Code     0  startup_stm32h563xx.o(.text)
    GPDMA1_Channel3_IRQHandler               0x08000319   Thumb Code     0  startup_stm32h563xx.o(.text)
    GPDMA1_Channel4_IRQHandler               0x08000319   Thumb Code     0  startup_stm32h563xx.o(.text)
    GPDMA1_Channel5_IRQHandler               0x08000319   Thumb Code     0  startup_stm32h563xx.o(.text)
    GPDMA1_Channel6_IRQHandler               0x08000319   Thumb Code     0  startup_stm32h563xx.o(.text)
    GPDMA1_Channel7_IRQHandler               0x08000319   Thumb Code     0  startup_stm32h563xx.o(.text)
    GPDMA2_Channel0_IRQHandler               0x08000319   Thumb Code     0  startup_stm32h563xx.o(.text)
    GPDMA2_Channel1_IRQHandler               0x08000319   Thumb Code     0  startup_stm32h563xx.o(.text)
    GPDMA2_Channel2_IRQHandler               0x08000319   Thumb Code     0  startup_stm32h563xx.o(.text)
    GPDMA2_Channel3_IRQHandler               0x08000319   Thumb Code     0  startup_stm32h563xx.o(.text)
    GPDMA2_Channel4_IRQHandler               0x08000319   Thumb Code     0  startup_stm32h563xx.o(.text)
    GPDMA2_Channel5_IRQHandler               0x08000319   Thumb Code     0  startup_stm32h563xx.o(.text)
    GPDMA2_Channel6_IRQHandler               0x08000319   Thumb Code     0  startup_stm32h563xx.o(.text)
    GPDMA2_Channel7_IRQHandler               0x08000319   Thumb Code     0  startup_stm32h563xx.o(.text)
    GTZC_IRQHandler                          0x08000319   Thumb Code     0  startup_stm32h563xx.o(.text)
    HASH_IRQHandler                          0x08000319   Thumb Code     0  startup_stm32h563xx.o(.text)
    I2C1_ER_IRQHandler                       0x08000319   Thumb Code     0  startup_stm32h563xx.o(.text)
    I2C1_EV_IRQHandler                       0x08000319   Thumb Code     0  startup_stm32h563xx.o(.text)
    I2C2_ER_IRQHandler                       0x08000319   Thumb Code     0  startup_stm32h563xx.o(.text)
    I2C2_EV_IRQHandler                       0x08000319   Thumb Code     0  startup_stm32h563xx.o(.text)
    I2C3_ER_IRQHandler                       0x08000319   Thumb Code     0  startup_stm32h563xx.o(.text)
    I2C3_EV_IRQHandler                       0x08000319   Thumb Code     0  startup_stm32h563xx.o(.text)
    I2C4_ER_IRQHandler                       0x08000319   Thumb Code     0  startup_stm32h563xx.o(.text)
    I2C4_EV_IRQHandler                       0x08000319   Thumb Code     0  startup_stm32h563xx.o(.text)
    I3C1_ER_IRQHandler                       0x08000319   Thumb Code     0  startup_stm32h563xx.o(.text)
    I3C1_EV_IRQHandler                       0x08000319   Thumb Code     0  startup_stm32h563xx.o(.text)
    ICACHE_IRQHandler                        0x08000319   Thumb Code     0  startup_stm32h563xx.o(.text)
    IWDG_IRQHandler                          0x08000319   Thumb Code     0  startup_stm32h563xx.o(.text)
    LPTIM1_IRQHandler                        0x08000319   Thumb Code     0  startup_stm32h563xx.o(.text)
    LPTIM2_IRQHandler                        0x08000319   Thumb Code     0  startup_stm32h563xx.o(.text)
    LPTIM3_IRQHandler                        0x08000319   Thumb Code     0  startup_stm32h563xx.o(.text)
    LPTIM4_IRQHandler                        0x08000319   Thumb Code     0  startup_stm32h563xx.o(.text)
    LPTIM5_IRQHandler                        0x08000319   Thumb Code     0  startup_stm32h563xx.o(.text)
    LPTIM6_IRQHandler                        0x08000319   Thumb Code     0  startup_stm32h563xx.o(.text)
    LPUART1_IRQHandler                       0x08000319   Thumb Code     0  startup_stm32h563xx.o(.text)
    OCTOSPI1_IRQHandler                      0x08000319   Thumb Code     0  startup_stm32h563xx.o(.text)
    PVD_AVD_IRQHandler                       0x08000319   Thumb Code     0  startup_stm32h563xx.o(.text)
    RAMCFG_IRQHandler                        0x08000319   Thumb Code     0  startup_stm32h563xx.o(.text)
    RCC_IRQHandler                           0x08000319   Thumb Code     0  startup_stm32h563xx.o(.text)
    RCC_S_IRQHandler                         0x08000319   Thumb Code     0  startup_stm32h563xx.o(.text)
    RNG_IRQHandler                           0x08000319   Thumb Code     0  startup_stm32h563xx.o(.text)
    RTC_IRQHandler                           0x08000319   Thumb Code     0  startup_stm32h563xx.o(.text)
    RTC_S_IRQHandler                         0x08000319   Thumb Code     0  startup_stm32h563xx.o(.text)
    SAI1_IRQHandler                          0x08000319   Thumb Code     0  startup_stm32h563xx.o(.text)
    SAI2_IRQHandler                          0x08000319   Thumb Code     0  startup_stm32h563xx.o(.text)
    SDMMC1_IRQHandler                        0x08000319   Thumb Code     0  startup_stm32h563xx.o(.text)
    SDMMC2_IRQHandler                        0x08000319   Thumb Code     0  startup_stm32h563xx.o(.text)
    SPI1_IRQHandler                          0x08000319   Thumb Code     0  startup_stm32h563xx.o(.text)
    SPI2_IRQHandler                          0x08000319   Thumb Code     0  startup_stm32h563xx.o(.text)
    SPI3_IRQHandler                          0x08000319   Thumb Code     0  startup_stm32h563xx.o(.text)
    SPI4_IRQHandler                          0x08000319   Thumb Code     0  startup_stm32h563xx.o(.text)
    SPI5_IRQHandler                          0x08000319   Thumb Code     0  startup_stm32h563xx.o(.text)
    SPI6_IRQHandler                          0x08000319   Thumb Code     0  startup_stm32h563xx.o(.text)
    TAMP_IRQHandler                          0x08000319   Thumb Code     0  startup_stm32h563xx.o(.text)
    TIM12_IRQHandler                         0x08000319   Thumb Code     0  startup_stm32h563xx.o(.text)
    TIM13_IRQHandler                         0x08000319   Thumb Code     0  startup_stm32h563xx.o(.text)
    TIM14_IRQHandler                         0x08000319   Thumb Code     0  startup_stm32h563xx.o(.text)
    TIM15_IRQHandler                         0x08000319   Thumb Code     0  startup_stm32h563xx.o(.text)
    TIM16_IRQHandler                         0x08000319   Thumb Code     0  startup_stm32h563xx.o(.text)
    TIM17_IRQHandler                         0x08000319   Thumb Code     0  startup_stm32h563xx.o(.text)
    TIM1_BRK_IRQHandler                      0x08000319   Thumb Code     0  startup_stm32h563xx.o(.text)
    TIM1_CC_IRQHandler                       0x08000319   Thumb Code     0  startup_stm32h563xx.o(.text)
    TIM1_TRG_COM_IRQHandler                  0x08000319   Thumb Code     0  startup_stm32h563xx.o(.text)
    TIM1_UP_IRQHandler                       0x08000319   Thumb Code     0  startup_stm32h563xx.o(.text)
    TIM2_IRQHandler                          0x08000319   Thumb Code     0  startup_stm32h563xx.o(.text)
    TIM3_IRQHandler                          0x08000319   Thumb Code     0  startup_stm32h563xx.o(.text)
    TIM4_IRQHandler                          0x08000319   Thumb Code     0  startup_stm32h563xx.o(.text)
    TIM5_IRQHandler                          0x08000319   Thumb Code     0  startup_stm32h563xx.o(.text)
    TIM7_IRQHandler                          0x08000319   Thumb Code     0  startup_stm32h563xx.o(.text)
    TIM8_BRK_IRQHandler                      0x08000319   Thumb Code     0  startup_stm32h563xx.o(.text)
    TIM8_CC_IRQHandler                       0x08000319   Thumb Code     0  startup_stm32h563xx.o(.text)
    TIM8_TRG_COM_IRQHandler                  0x08000319   Thumb Code     0  startup_stm32h563xx.o(.text)
    TIM8_UP_IRQHandler                       0x08000319   Thumb Code     0  startup_stm32h563xx.o(.text)
    UART12_IRQHandler                        0x08000319   Thumb Code     0  startup_stm32h563xx.o(.text)
    UART5_IRQHandler                         0x08000319   Thumb Code     0  startup_stm32h563xx.o(.text)
    UART7_IRQHandler                         0x08000319   Thumb Code     0  startup_stm32h563xx.o(.text)
    UART8_IRQHandler                         0x08000319   Thumb Code     0  startup_stm32h563xx.o(.text)
    UART9_IRQHandler                         0x08000319   Thumb Code     0  startup_stm32h563xx.o(.text)
    UCPD1_IRQHandler                         0x08000319   Thumb Code     0  startup_stm32h563xx.o(.text)
    USART10_IRQHandler                       0x08000319   Thumb Code     0  startup_stm32h563xx.o(.text)
    USART11_IRQHandler                       0x08000319   Thumb Code     0  startup_stm32h563xx.o(.text)
    USART1_IRQHandler                        0x08000319   Thumb Code     0  startup_stm32h563xx.o(.text)
    USART3_IRQHandler                        0x08000319   Thumb Code     0  startup_stm32h563xx.o(.text)
    USART6_IRQHandler                        0x08000319   Thumb Code     0  startup_stm32h563xx.o(.text)
    USB_DRD_FS_IRQHandler                    0x08000319   Thumb Code     0  startup_stm32h563xx.o(.text)
    WWDG_IRQHandler                          0x08000319   Thumb Code     0  startup_stm32h563xx.o(.text)
    __user_initial_stackheap                 0x0800031d   Thumb Code    10  startup_stm32h563xx.o(.text)
    __aeabi_uldivmod                         0x08000341   Thumb Code     0  lludivv7m.o(.text)
    _ll_udiv                                 0x08000341   Thumb Code   240  lludivv7m.o(.text)
    __2sprintf                               0x08000431   Thumb Code    34  noretval__2sprintf.o(.text)
    _printf_pre_padding                      0x08000459   Thumb Code    44  _printf_pad.o(.text)
    _printf_post_padding                     0x08000485   Thumb Code    34  _printf_pad.o(.text)
    _printf_int_dec                          0x080004a9   Thumb Code   104  _printf_dec.o(.text)
    _printf_int_hex                          0x08000521   Thumb Code    84  _printf_hex_int.o(.text)
    _printf_longlong_hex                     0x08000521   Thumb Code     0  _printf_hex_int.o(.text)
    __printf                                 0x08000579   Thumb Code   308  __printf_flags_wp.o(.text)
    strlen                                   0x080006b1   Thumb Code    62  strlen.o(.text)
    __aeabi_memcpy                           0x080006ef   Thumb Code     0  rt_memcpy_v6.o(.text)
    __rt_memcpy                              0x080006ef   Thumb Code   138  rt_memcpy_v6.o(.text)
    _memcpy_lastbytes                        0x08000755   Thumb Code     0  rt_memcpy_v6.o(.text)
    __aeabi_memset4                          0x08000779   Thumb Code    16  aeabi_memset4.o(.text)
    __aeabi_memset8                          0x08000779   Thumb Code     0  aeabi_memset4.o(.text)
    __aeabi_memclr                           0x08000789   Thumb Code     0  rt_memclr.o(.text)
    __rt_memclr                              0x08000789   Thumb Code    68  rt_memclr.o(.text)
    _memset                                  0x0800078d   Thumb Code     0  rt_memclr.o(.text)
    __aeabi_memclr4                          0x080007cd   Thumb Code     0  rt_memclr_w.o(.text)
    __aeabi_memclr8                          0x080007cd   Thumb Code     0  rt_memclr_w.o(.text)
    __rt_memclr_w                            0x080007cd   Thumb Code    78  rt_memclr_w.o(.text)
    _memset_w                                0x080007d1   Thumb Code     0  rt_memclr_w.o(.text)
    __use_two_region_memory                  0x0800081b   Thumb Code     2  heapauxi.o(.text)
    __rt_heap_escrow                         0x0800081d   Thumb Code     2  heapauxi.o(.text)
    __rt_heap_expand                         0x0800081f   Thumb Code     2  heapauxi.o(.text)
    _printf_int_common                       0x08000821   Thumb Code   178  _printf_intcommon.o(.text)
    _printf_char_common                      0x080008df   Thumb Code    32  _printf_char_common.o(.text)
    _sputc                                   0x08000905   Thumb Code    10  _sputc.o(.text)
    __aeabi_memcpy4                          0x0800090f   Thumb Code     0  rt_memcpy_w.o(.text)
    __aeabi_memcpy8                          0x0800090f   Thumb Code     0  rt_memcpy_w.o(.text)
    __rt_memcpy_w                            0x0800090f   Thumb Code   100  rt_memcpy_w.o(.text)
    _memcpy_lastbytes_aligned                0x08000957   Thumb Code     0  rt_memcpy_w.o(.text)
    __user_libspace                          0x08000975   Thumb Code     8  libspace.o(.text)
    __user_perproc_libspace                  0x08000975   Thumb Code     0  libspace.o(.text)
    __user_perthread_libspace                0x08000975   Thumb Code     0  libspace.o(.text)
    __I$use$semihosting                      0x0800097d   Thumb Code     0  use_no_semi.o(.text)
    __use_no_semihosting_swi                 0x0800097d   Thumb Code     2  use_no_semi.o(.text)
    __semihosting_library_function           0x0800097f   Thumb Code     0  indicate_semi.o(.text)
    __user_setup_stackheap                   0x0800097f   Thumb Code    74  sys_stackheap_outer.o(.text)
    exit                                     0x080009c9   Thumb Code    18  exit.o(.text)
    _sys_exit                                0x080009dd   Thumb Code     8  sys_exit.o(.text)
    BusFault_Handler                         0x080009e9   Thumb Code     2  stm32h5xx_it.o(.text.BusFault_Handler)
    DebugMon_Handler                         0x08000ab5   Thumb Code     2  stm32h5xx_it.o(.text.DebugMon_Handler)
    Draw_ASCII                               0x08000ab9   Thumb Code   322  draw.o(.text.Draw_ASCII)
    Draw_Clear                               0x08000bfd   Thumb Code   124  draw.o(.text.Draw_Clear)
    Draw_Init                                0x08000c79   Thumb Code    14  draw.o(.text.Draw_Init)
    Draw_String                              0x08000c89   Thumb Code   186  draw.o(.text.Draw_String)
    Error_Handler                            0x08000d45   Thumb Code     6  main.o(.text.Error_Handler)
    GPDMA1_Channel0_IRQHandler               0x08000d4d   Thumb Code    12  stm32h5xx_it.o(.text.GPDMA1_Channel0_IRQHandler)
    GPDMA1_Channel1_IRQHandler               0x08000d59   Thumb Code    12  stm32h5xx_it.o(.text.GPDMA1_Channel1_IRQHandler)
    HAL_DMAEx_List_Start_IT                  0x08000d65   Thumb Code   200  stm32h5xx_hal_dma_ex.o(.text.HAL_DMAEx_List_Start_IT)
    HAL_DMA_Abort                            0x08000e2d   Thumb Code   170  stm32h5xx_hal_dma.o(.text.HAL_DMA_Abort)
    HAL_DMA_Abort_IT                         0x08000ed9   Thumb Code    46  stm32h5xx_hal_dma.o(.text.HAL_DMA_Abort_IT)
    HAL_DMA_ConfigChannelAttributes          0x08000f09   Thumb Code    70  stm32h5xx_hal_dma.o(.text.HAL_DMA_ConfigChannelAttributes)
    HAL_DMA_GetError                         0x08000f51   Thumb Code     4  stm32h5xx_hal_dma.o(.text.HAL_DMA_GetError)
    HAL_DMA_IRQHandler                       0x08000f55   Thumb Code   448  stm32h5xx_hal_dma.o(.text.HAL_DMA_IRQHandler)
    HAL_DMA_Init                             0x08001115   Thumb Code  1368  stm32h5xx_hal_dma.o(.text.HAL_DMA_Init)
    HAL_DMA_Start_IT                         0x0800166d   Thumb Code   166  stm32h5xx_hal_dma.o(.text.HAL_DMA_Start_IT)
    HAL_Delay                                0x08001715   Thumb Code    40  stm32h5xx_hal.o(.text.HAL_Delay)
    HAL_GPIO_Init                            0x0800173d   Thumb Code   408  stm32h5xx_hal_gpio.o(.text.HAL_GPIO_Init)
    HAL_GPIO_WritePin                        0x080018d5   Thumb Code    12  stm32h5xx_hal_gpio.o(.text.HAL_GPIO_WritePin)
    HAL_GetTick                              0x080018e1   Thumb Code    12  stm32h5xx_hal.o(.text.HAL_GetTick)
    HAL_ICACHE_ConfigAssociativityMode       0x080018ed   Thumb Code    32  stm32h5xx_hal_icache.o(.text.HAL_ICACHE_ConfigAssociativityMode)
    HAL_ICACHE_Enable                        0x0800190d   Thumb Code    20  stm32h5xx_hal_icache.o(.text.HAL_ICACHE_Enable)
    HAL_IncTick                              0x08001921   Thumb Code    26  stm32h5xx_hal.o(.text.HAL_IncTick)
    HAL_Init                                 0x0800193d   Thumb Code    70  stm32h5xx_hal.o(.text.HAL_Init)
    HAL_InitTick                             0x08001985   Thumb Code   172  stm32h5xx_hal_timebase_tim.o(.text.HAL_InitTick)
    HAL_MspInit                              0x08001a31   Thumb Code    12  stm32h5xx_hal_msp.o(.text.HAL_MspInit)
    HAL_NVIC_EnableIRQ                       0x08001a3d   Thumb Code    32  stm32h5xx_hal_cortex.o(.text.HAL_NVIC_EnableIRQ)
    HAL_NVIC_SetPriority                     0x08001a5d   Thumb Code    86  stm32h5xx_hal_cortex.o(.text.HAL_NVIC_SetPriority)
    HAL_NVIC_SetPriorityGrouping             0x08001ab5   Thumb Code    32  stm32h5xx_hal_cortex.o(.text.HAL_NVIC_SetPriorityGrouping)
    HAL_RCCEx_GetPLL1ClockFreq               0x08001ad5   Thumb Code   428  stm32h5xx_hal_rcc_ex.o(.text.HAL_RCCEx_GetPLL1ClockFreq)
    HAL_RCCEx_GetPLL2ClockFreq               0x08001c81   Thumb Code   428  stm32h5xx_hal_rcc_ex.o(.text.HAL_RCCEx_GetPLL2ClockFreq)
    HAL_RCCEx_GetPLL3ClockFreq               0x08001e2d   Thumb Code   428  stm32h5xx_hal_rcc_ex.o(.text.HAL_RCCEx_GetPLL3ClockFreq)
    HAL_RCCEx_GetPeriphCLKFreq               0x08001fd9   Thumb Code  4084  stm32h5xx_hal_rcc_ex.o(.text.HAL_RCCEx_GetPeriphCLKFreq)
    HAL_RCCEx_PeriphCLKConfig                0x08002fcd   Thumb Code  4254  stm32h5xx_hal_rcc_ex.o(.text.HAL_RCCEx_PeriphCLKConfig)
    HAL_RCC_ClockConfig                      0x0800406d   Thumb Code   612  stm32h5xx_hal_rcc.o(.text.HAL_RCC_ClockConfig)
    HAL_RCC_GetClockConfig                   0x080042d1   Thumb Code    68  stm32h5xx_hal_rcc.o(.text.HAL_RCC_GetClockConfig)
    HAL_RCC_GetHCLKFreq                      0x08004315   Thumb Code    48  stm32h5xx_hal_rcc.o(.text.HAL_RCC_GetHCLKFreq)
    HAL_RCC_GetPCLK1Freq                     0x08004345   Thumb Code    70  stm32h5xx_hal_rcc.o(.text.HAL_RCC_GetPCLK1Freq)
    HAL_RCC_GetPCLK2Freq                     0x0800438d   Thumb Code    70  stm32h5xx_hal_rcc.o(.text.HAL_RCC_GetPCLK2Freq)
    HAL_RCC_GetPCLK3Freq                     0x080043d5   Thumb Code    70  stm32h5xx_hal_rcc.o(.text.HAL_RCC_GetPCLK3Freq)
    HAL_RCC_GetSysClockFreq                  0x0800441d   Thumb Code   296  stm32h5xx_hal_rcc.o(.text.HAL_RCC_GetSysClockFreq)
    HAL_RCC_OscConfig                        0x08004545   Thumb Code  1570  stm32h5xx_hal_rcc.o(.text.HAL_RCC_OscConfig)
    HAL_SPI_Init                             0x08004b69   Thumb Code   554  stm32h5xx_hal_spi.o(.text.HAL_SPI_Init)
    HAL_SPI_MspInit                          0x08004d95   Thumb Code   212  spi.o(.text.HAL_SPI_MspInit)
    HAL_SPI_Transmit                         0x08004e69   Thumb Code   968  stm32h5xx_hal_spi.o(.text.HAL_SPI_Transmit)
    HAL_TIMEx_Break2Callback                 0x08005231   Thumb Code     2  stm32h5xx_hal_tim_ex.o(.text.HAL_TIMEx_Break2Callback)
    HAL_TIMEx_BreakCallback                  0x08005235   Thumb Code     2  stm32h5xx_hal_tim_ex.o(.text.HAL_TIMEx_BreakCallback)
    HAL_TIMEx_CommutCallback                 0x08005239   Thumb Code     2  stm32h5xx_hal_tim_ex.o(.text.HAL_TIMEx_CommutCallback)
    HAL_TIMEx_DirectionChangeCallback        0x0800523d   Thumb Code     2  stm32h5xx_hal_tim_ex.o(.text.HAL_TIMEx_DirectionChangeCallback)
    HAL_TIMEx_EncoderIndexCallback           0x08005241   Thumb Code     2  stm32h5xx_hal_tim_ex.o(.text.HAL_TIMEx_EncoderIndexCallback)
    HAL_TIMEx_IndexErrorCallback             0x08005245   Thumb Code     2  stm32h5xx_hal_tim_ex.o(.text.HAL_TIMEx_IndexErrorCallback)
    HAL_TIMEx_TransitionErrorCallback        0x08005249   Thumb Code     2  stm32h5xx_hal_tim_ex.o(.text.HAL_TIMEx_TransitionErrorCallback)
    HAL_TIM_Base_Init                        0x0800524d   Thumb Code    98  stm32h5xx_hal_tim.o(.text.HAL_TIM_Base_Init)
    HAL_TIM_Base_MspInit                     0x080052b1   Thumb Code     2  stm32h5xx_hal_tim.o(.text.HAL_TIM_Base_MspInit)
    HAL_TIM_Base_Start_IT                    0x080052b5   Thumb Code   306  stm32h5xx_hal_tim.o(.text.HAL_TIM_Base_Start_IT)
    HAL_TIM_IC_CaptureCallback               0x080053e9   Thumb Code     2  stm32h5xx_hal_tim.o(.text.HAL_TIM_IC_CaptureCallback)
    HAL_TIM_IRQHandler                       0x080053ed   Thumb Code   510  stm32h5xx_hal_tim.o(.text.HAL_TIM_IRQHandler)
    HAL_TIM_OC_DelayElapsedCallback          0x080055ed   Thumb Code     2  stm32h5xx_hal_tim.o(.text.HAL_TIM_OC_DelayElapsedCallback)
    HAL_TIM_PWM_PulseFinishedCallback        0x080055f1   Thumb Code     2  stm32h5xx_hal_tim.o(.text.HAL_TIM_PWM_PulseFinishedCallback)
    HAL_TIM_PeriodElapsedCallback            0x080055f5   Thumb Code    20  main.o(.text.HAL_TIM_PeriodElapsedCallback)
    HAL_TIM_TriggerCallback                  0x08005609   Thumb Code     2  stm32h5xx_hal_tim.o(.text.HAL_TIM_TriggerCallback)
    HAL_UARTEx_EnableFifoMode                0x0800560d   Thumb Code   122  stm32h5xx_hal_uart_ex.o(.text.HAL_UARTEx_EnableFifoMode)
    HAL_UARTEx_ReceiveToIdle_DMA             0x08005689   Thumb Code   184  stm32h5xx_hal_uart_ex.o(.text.HAL_UARTEx_ReceiveToIdle_DMA)
    HAL_UARTEx_RxEventCallback               0x08005741   Thumb Code    78  usart.o(.text.HAL_UARTEx_RxEventCallback)
    HAL_UARTEx_RxFifoFullCallback            0x08005791   Thumb Code     2  stm32h5xx_hal_uart_ex.o(.text.HAL_UARTEx_RxFifoFullCallback)
    HAL_UARTEx_SetRxFifoThreshold            0x08005795   Thumb Code   144  stm32h5xx_hal_uart_ex.o(.text.HAL_UARTEx_SetRxFifoThreshold)
    HAL_UARTEx_SetTxFifoThreshold            0x08005825   Thumb Code   144  stm32h5xx_hal_uart_ex.o(.text.HAL_UARTEx_SetTxFifoThreshold)
    HAL_UARTEx_TxFifoEmptyCallback           0x080058b5   Thumb Code     2  stm32h5xx_hal_uart_ex.o(.text.HAL_UARTEx_TxFifoEmptyCallback)
    HAL_UARTEx_WakeupCallback                0x080058b9   Thumb Code     2  stm32h5xx_hal_uart_ex.o(.text.HAL_UARTEx_WakeupCallback)
    HAL_UART_DMAStop                         0x080058bd   Thumb Code   668  stm32h5xx_hal_uart.o(.text.HAL_UART_DMAStop)
    HAL_UART_ErrorCallback                   0x08005b59   Thumb Code    40  usart.o(.text.HAL_UART_ErrorCallback)
    HAL_UART_IRQHandler                      0x08005b81   Thumb Code  1434  stm32h5xx_hal_uart.o(.text.HAL_UART_IRQHandler)
    HAL_UART_Init                            0x0800611d   Thumb Code   102  stm32h5xx_hal_uart.o(.text.HAL_UART_Init)
    HAL_UART_MspInit                         0x08006185   Thumb Code   442  usart.o(.text.HAL_UART_MspInit)
    HAL_UART_RxCpltCallback                  0x08006341   Thumb Code    72  usart.o(.text.HAL_UART_RxCpltCallback)
    HAL_UART_RxHalfCpltCallback              0x08006389   Thumb Code     2  stm32h5xx_hal_uart.o(.text.HAL_UART_RxHalfCpltCallback)
    HAL_UART_Transmit_DMA                    0x0800638d   Thumb Code   304  stm32h5xx_hal_uart.o(.text.HAL_UART_Transmit_DMA)
    HAL_UART_TxCpltCallback                  0x080064bd   Thumb Code    28  usart.o(.text.HAL_UART_TxCpltCallback)
    HAL_UART_TxHalfCpltCallback              0x080064d9   Thumb Code     2  stm32h5xx_hal_uart.o(.text.HAL_UART_TxHalfCpltCallback)
    HardFault_Handler                        0x080064dd   Thumb Code     2  stm32h5xx_it.o(.text.HardFault_Handler)
    LCD_GetInfo                              0x080064e1   Thumb Code    18  spi_lcd.o(.text.LCD_GetInfo)
    LCD_Init                                 0x080064f5   Thumb Code  5070  spi_lcd.o(.text.LCD_Init)
    LCD_SetDataLine                          0x080078c5   Thumb Code    18  spi_lcd.o(.text.LCD_SetDataLine)
    LCD_SetWindows                           0x080078d9   Thumb Code   666  spi_lcd.o(.text.LCD_SetWindows)
    LCD_WriteDatas                           0x08007b75   Thumb Code    64  spi_lcd.o(.text.LCD_WriteDatas)
    MX_FREERTOS_Init                         0x08007bb5   Thumb Code   168  app_freertos.o(.text.MX_FREERTOS_Init)
    MX_GPDMA1_Init                           0x08007c5d   Thumb Code    68  gpdma.o(.text.MX_GPDMA1_Init)
    MX_GPIO_Init                             0x08007ca1   Thumb Code   224  gpio.o(.text.MX_GPIO_Init)
    MX_ICACHE_Init                           0x08007d81   Thumb Code    34  icache.o(.text.MX_ICACHE_Init)
    MX_SPI2_Init                             0x08007da5   Thumb Code   100  spi.o(.text.MX_SPI2_Init)
    MX_UART4_Init                            0x08007e09   Thumb Code   132  usart.o(.text.MX_UART4_Init)
    MX_USART2_UART_Init                      0x08007e8d   Thumb Code   132  usart.o(.text.MX_USART2_UART_Init)
    MemManage_Handler                        0x08007f11   Thumb Code     2  stm32h5xx_it.o(.text.MemManage_Handler)
    NMI_Handler                              0x08007f15   Thumb Code     2  stm32h5xx_it.o(.text.NMI_Handler)
    PendSV_Handler                           0x08007f21   Thumb Code    84  portasm.o(.text.PendSV_Handler)
    SVC_Handler                              0x08008261   Thumb Code    36  portasm.o(.text.SVC_Handler)
    StartDefaultTask                         0x08008285   Thumb Code    50  app_freertos.o(.text.StartDefaultTask)
    SysTick_Handler                          0x080082b9   Thumb Code    30  cmsis_os2.o(.text.SysTick_Handler)
    SystemInit                               0x080082d9   Thumb Code   174  system_stm32h5xx.o(.text.SystemInit)
    TIM6_IRQHandler                          0x08008389   Thumb Code    12  stm32h5xx_it.o(.text.TIM6_IRQHandler)
    TIM_Base_SetConfig                       0x08008395   Thumb Code   696  stm32h5xx_hal_tim.o(.text.TIM_Base_SetConfig)
    UART4_GetData                            0x0800864d   Thumb Code    30  usart.o(.text.UART4_GetData)
    UART4_IRQHandler                         0x0800866d   Thumb Code    12  stm32h5xx_it.o(.text.UART4_IRQHandler)
    UART4_Rx_Start                           0x08008679   Thumb Code    48  usart.o(.text.UART4_Rx_Start)
    UART_AdvFeatureConfig                    0x080086a9   Thumb Code   230  stm32h5xx_hal_uart.o(.text.UART_AdvFeatureConfig)
    UART_CheckIdleState                      0x08008791   Thumb Code   362  stm32h5xx_hal_uart.o(.text.UART_CheckIdleState)
    UART_SetConfig                           0x08008c95   Thumb Code   828  stm32h5xx_hal_uart.o(.text.UART_SetConfig)
    UART_Start_Receive_DMA                   0x08008fd1   Thumb Code   392  stm32h5xx_hal_uart.o(.text.UART_Start_Receive_DMA)
    UART_WaitOnFlagUntilTimeout              0x08009159   Thumb Code   736  stm32h5xx_hal_uart.o(.text.UART_WaitOnFlagUntilTimeout)
    USART2_IRQHandler                        0x08009439   Thumb Code    12  stm32h5xx_it.o(.text.USART2_IRQHandler)
    UsageFault_Handler                       0x08009445   Thumb Code     2  stm32h5xx_it.o(.text.UsageFault_Handler)
    Wait_UART2_Tx_Complete                   0x08009449   Thumb Code    44  usart.o(.text.Wait_UART2_Tx_Complete)
    main                                     0x08009475   Thumb Code   278  main.o(.text.main)
    osKernelInitialize                       0x0800958d   Thumb Code    76  cmsis_os2.o(.text.osKernelInitialize)
    osKernelStart                            0x080095d9   Thumb Code    92  cmsis_os2.o(.text.osKernelStart)
    osThreadNew                              0x08009635   Thumb Code   212  cmsis_os2.o(.text.osThreadNew)
    pvPortMalloc                             0x08009ef9   Thumb Code   432  heap_4.o(.text.pvPortMalloc)
    pxPortInitialiseStack                    0x0800a0a9   Thumb Code   110  port.o(.text.pxPortInitialiseStack)
    ulSetInterruptMask                       0x0800a119   Thumb Code    22  portasm.o(.text.ulSetInterruptMask)
    uxListRemove                             0x0800a131   Thumb Code    36  list.o(.text.uxListRemove)
    uxTaskGetNumberOfTasks                   0x0800a155   Thumb Code    12  tasks.o(.text.uxTaskGetNumberOfTasks)
    vApplicationGetIdleTaskMemory            0x0800a161   Thumb Code    26  cmsis_os2.o(.text.vApplicationGetIdleTaskMemory)
    vApplicationGetTimerTaskMemory           0x0800a17d   Thumb Code    26  cmsis_os2.o(.text.vApplicationGetTimerTaskMemory)
    vClearInterruptMask                      0x0800a199   Thumb Code    14  portasm.o(.text.vClearInterruptMask)
    vListInitialise                          0x0800a1a9   Thumb Code    22  list.o(.text.vListInitialise)
    vListInitialiseItem                      0x0800a1c1   Thumb Code     6  list.o(.text.vListInitialiseItem)
    vListInsert                              0x0800a1c9   Thumb Code    96  list.o(.text.vListInsert)
    vPortEnterCritical                       0x0800a229   Thumb Code    30  port.o(.text.vPortEnterCritical)
    vPortExitCritical                        0x0800a249   Thumb Code    46  port.o(.text.vPortExitCritical)
    vPortFree                                0x0800a279   Thumb Code   196  heap_4.o(.text.vPortFree)
    vPortSVCHandler_C                        0x0800a33d   Thumb Code    26  port.o(.text.vPortSVCHandler_C)
    vPortSetupTimerInterrupt                 0x0800a359   Thumb Code    52  port.o(.text.vPortSetupTimerInterrupt)
    vPortYield                               0x0800a38d   Thumb Code    24  port.o(.text.vPortYield)
    vQueueAddToRegistry                      0x0800a3a5   Thumb Code   276  queue.o(.text.vQueueAddToRegistry)
    vQueueWaitForMessageRestricted           0x0800a4b9   Thumb Code    80  queue.o(.text.vQueueWaitForMessageRestricted)
    vRestoreContextOfFirstTask               0x0800a511   Thumb Code    52  portasm.o(.text.vRestoreContextOfFirstTask)
    vStartFirstTask                          0x0800a551   Thumb Code    36  portasm.o(.text.vStartFirstTask)
    vTaskDelay                               0x0800a575   Thumb Code   110  tasks.o(.text.vTaskDelay)
    vTaskInternalSetTimeOutState             0x0800a5e5   Thumb Code    18  tasks.o(.text.vTaskInternalSetTimeOutState)
    vTaskMissedYield                         0x0800a5f9   Thumb Code    14  tasks.o(.text.vTaskMissedYield)
    vTaskPlaceOnEventList                    0x0800a609   Thumb Code    42  tasks.o(.text.vTaskPlaceOnEventList)
    vTaskPlaceOnEventListRestricted          0x0800a635   Thumb Code   146  tasks.o(.text.vTaskPlaceOnEventListRestricted)
    vTaskStartScheduler                      0x0800a6c9   Thumb Code   200  tasks.o(.text.vTaskStartScheduler)
    vTaskSuspendAll                          0x0800a791   Thumb Code    16  tasks.o(.text.vTaskSuspendAll)
    vTaskSwitchContext                       0x0800a7a1   Thumb Code   166  tasks.o(.text.vTaskSwitchContext)
    xPortStartScheduler                      0x0800a849   Thumb Code    92  port.o(.text.xPortStartScheduler)
    xPortSysTickHandler                      0x0800a8a5   Thumb Code    38  port.o(.text.xPortSysTickHandler)
    xQueueGenericCreate                      0x0800a8cd   Thumb Code   138  queue.o(.text.xQueueGenericCreate)
    xQueueGenericCreateStatic                0x0800a959   Thumb Code   158  queue.o(.text.xQueueGenericCreateStatic)
    xQueueGenericSendFromISR                 0x0800a9f9   Thumb Code   334  queue.o(.text.xQueueGenericSendFromISR)
    xQueueReceive                            0x0800ab49   Thumb Code   346  queue.o(.text.xQueueReceive)
    xTaskCheckForTimeOut                     0x0800aca5   Thumb Code   134  tasks.o(.text.xTaskCheckForTimeOut)
    xTaskCreate                              0x0800ad2d   Thumb Code   100  tasks.o(.text.xTaskCreate)
    xTaskCreateStatic                        0x0800ad91   Thumb Code   122  tasks.o(.text.xTaskCreateStatic)
    xTaskGetSchedulerState                   0x0800ae0d   Thumb Code    30  tasks.o(.text.xTaskGetSchedulerState)
    xTaskGetTickCount                        0x0800ae2d   Thumb Code    12  tasks.o(.text.xTaskGetTickCount)
    xTaskIncrementTick                       0x0800ae39   Thumb Code   366  tasks.o(.text.xTaskIncrementTick)
    xTaskPriorityDisinherit                  0x0800afa9   Thumb Code   146  tasks.o(.text.xTaskPriorityDisinherit)
    xTaskRemoveFromEventList                 0x0800b03d   Thumb Code   218  tasks.o(.text.xTaskRemoveFromEventList)
    xTaskResumeAll                           0x0800b119   Thumb Code   296  tasks.o(.text.xTaskResumeAll)
    xTimerCreateTimerTask                    0x0800b241   Thumb Code   172  timers.o(.text.xTimerCreateTimerTask)
    _is_digit                                0x0800b2ed   Thumb Code    14  __printf_wp.o(i._is_digit)
    _fp_init                                 0x0800b2fb   Thumb Code    26  fpinit.o(x$fpl$fpinit)
    __fplib_config_fpu_vfp                   0x0800b313   Thumb Code     0  fpinit.o(x$fpl$fpinit)
    __fplib_config_pureend_doubles           0x0800b313   Thumb Code     0  fpinit.o(x$fpl$fpinit)
    AHBPrescTable                            0x0800b34d   Data          16  system_stm32h5xx.o(.rodata.AHBPrescTable)
    APBPrescTable                            0x0800b35d   Data           8  system_stm32h5xx.o(.rodata.APBPrescTable)
    UARTPrescTable                           0x0800b366   Data          24  stm32h5xx_hal_uart.o(.rodata.UARTPrescTable)
    defaultTask_attributes                   0x0800b390   Data          36  app_freertos.o(.rodata.defaultTask_attributes)
    fontdata_8x16                            0x0800b3b4   Data        4096  font_8x16.o(.rodata.fontdata_8x16)
    uxTopUsedPriority                        0x0800c3c8   Data           4  tasks.o(.rodata.uxTopUsedPriority)
    Region$$Table$$Base                      0x0800c3cc   Number         0  anon$$obj.o(Region$$Table)
    Region$$Table$$Limit                     0x0800c3ec   Number         0  anon$$obj.o(Region$$Table)
    uwTickFreq                               0x20000000   Data           1  stm32h5xx_hal.o(.data..L_MergedGlobals)
    uwTickPrio                               0x20000004   Data           4  stm32h5xx_hal.o(.data..L_MergedGlobals)
    SystemCoreClock                          0x20000008   Data           4  system_stm32h5xx.o(.data.SystemCoreClock)
    __libspace_start                         0x20000010   Data          96  libspace.o(.bss)
    __temporary_stack_top$libspace           0x20000070   Data           0  libspace.o(.bss)
    defaultTaskHandle                        0x200001e8   Data           4  app_freertos.o(.bss.defaultTaskHandle)
    handle_GPDMA1_Channel0                   0x200001f0   Data         120  usart.o(.bss.handle_GPDMA1_Channel0)
    handle_GPDMA1_Channel1                   0x20000268   Data         120  usart.o(.bss.handle_GPDMA1_Channel1)
    hspi2                                    0x200002e0   Data         144  spi.o(.bss.hspi2)
    htim6                                    0x20000370   Data          76  stm32h5xx_hal_timebase_tim.o(.bss.htim6)
    huart2                                   0x200003bc   Data         148  usart.o(.bss.huart2)
    huart4                                   0x20000450   Data         148  usart.o(.bss.huart4)
    pxCurrentTCB                             0x200005d4   Data           4  tasks.o(.bss.pxCurrentTCB)
    uwTick                                   0x20002a38   Data           4  stm32h5xx_hal.o(.bss.uwTick)
    xQueueRegistry                           0x20002ef4   Data          64  queue.o(.bss.xQueueRegistry)



==============================================================================

Memory Map of the image

  Image Entry point : 0x0800024d

  Load Region LR_IROM1 (Base: 0x08000000, Size: 0x0000c400, Max: 0x00200000, ABSOLUTE)

    Execution Region ER_IROM1 (Exec base: 0x08000000, Load base: 0x08000000, Size: 0x0000c3ec, Max: 0x00200000, ABSOLUTE)

    Exec Addr    Load Addr    Size         Type   Attr      Idx    E Section Name        Object

    0x08000000   0x08000000   0x0000024c   Data   RO            3    RESET               startup_stm32h563xx.o
    0x0800024c   0x0800024c   0x00000008   Code   RO         2388  * !!!main             c_w.l(__main.o)
    0x08000254   0x08000254   0x00000034   Code   RO         2620    !!!scatter          c_w.l(__scatter.o)
    0x08000288   0x08000288   0x0000001a   Code   RO         2622    !!handler_copy      c_w.l(__scatter_copy.o)
    0x080002a2   0x080002a2   0x00000002   PAD
    0x080002a4   0x080002a4   0x0000001c   Code   RO         2624    !!handler_zi        c_w.l(__scatter_zi.o)
    0x080002c0   0x080002c0   0x00000000   Code   RO         2373    .ARM.Collect$$_printf_percent$$00000000  c_w.l(_printf_percent.o)
    0x080002c0   0x080002c0   0x00000006   Code   RO         2372    .ARM.Collect$$_printf_percent$$00000009  c_w.l(_printf_d.o)
    0x080002c6   0x080002c6   0x00000006   Code   RO         2371    .ARM.Collect$$_printf_percent$$0000000C  c_w.l(_printf_x.o)
    0x080002cc   0x080002cc   0x00000004   Code   RO         2432    .ARM.Collect$$_printf_percent$$00000017  c_w.l(_printf_percent_end.o)
    0x080002d0   0x080002d0   0x00000002   Code   RO         2555    .ARM.Collect$$libinit$$00000000  c_w.l(libinit.o)
    0x080002d2   0x080002d2   0x00000004   Code   RO         2437    .ARM.Collect$$libinit$$00000001  c_w.l(libinit2.o)
    0x080002d6   0x080002d6   0x00000000   Code   RO         2440    .ARM.Collect$$libinit$$00000004  c_w.l(libinit2.o)
    0x080002d6   0x080002d6   0x00000000   Code   RO         2443    .ARM.Collect$$libinit$$0000000A  c_w.l(libinit2.o)
    0x080002d6   0x080002d6   0x00000000   Code   RO         2445    .ARM.Collect$$libinit$$0000000C  c_w.l(libinit2.o)
    0x080002d6   0x080002d6   0x00000000   Code   RO         2447    .ARM.Collect$$libinit$$0000000E  c_w.l(libinit2.o)
    0x080002d6   0x080002d6   0x00000000   Code   RO         2450    .ARM.Collect$$libinit$$00000011  c_w.l(libinit2.o)
    0x080002d6   0x080002d6   0x00000000   Code   RO         2452    .ARM.Collect$$libinit$$00000013  c_w.l(libinit2.o)
    0x080002d6   0x080002d6   0x00000000   Code   RO         2454    .ARM.Collect$$libinit$$00000015  c_w.l(libinit2.o)
    0x080002d6   0x080002d6   0x00000000   Code   RO         2456    .ARM.Collect$$libinit$$00000017  c_w.l(libinit2.o)
    0x080002d6   0x080002d6   0x00000000   Code   RO         2458    .ARM.Collect$$libinit$$00000019  c_w.l(libinit2.o)
    0x080002d6   0x080002d6   0x00000000   Code   RO         2460    .ARM.Collect$$libinit$$0000001B  c_w.l(libinit2.o)
    0x080002d6   0x080002d6   0x00000000   Code   RO         2462    .ARM.Collect$$libinit$$0000001D  c_w.l(libinit2.o)
    0x080002d6   0x080002d6   0x00000000   Code   RO         2464    .ARM.Collect$$libinit$$0000001F  c_w.l(libinit2.o)
    0x080002d6   0x080002d6   0x00000000   Code   RO         2466    .ARM.Collect$$libinit$$00000021  c_w.l(libinit2.o)
    0x080002d6   0x080002d6   0x00000000   Code   RO         2468    .ARM.Collect$$libinit$$00000023  c_w.l(libinit2.o)
    0x080002d6   0x080002d6   0x00000000   Code   RO         2470    .ARM.Collect$$libinit$$00000025  c_w.l(libinit2.o)
    0x080002d6   0x080002d6   0x00000000   Code   RO         2474    .ARM.Collect$$libinit$$0000002C  c_w.l(libinit2.o)
    0x080002d6   0x080002d6   0x00000000   Code   RO         2476    .ARM.Collect$$libinit$$0000002E  c_w.l(libinit2.o)
    0x080002d6   0x080002d6   0x00000000   Code   RO         2478    .ARM.Collect$$libinit$$00000030  c_w.l(libinit2.o)
    0x080002d6   0x080002d6   0x00000000   Code   RO         2480    .ARM.Collect$$libinit$$00000032  c_w.l(libinit2.o)
    0x080002d6   0x080002d6   0x00000002   Code   RO         2481    .ARM.Collect$$libinit$$00000033  c_w.l(libinit2.o)
    0x080002d8   0x080002d8   0x00000002   Code   RO         2617    .ARM.Collect$$libshutdown$$00000000  c_w.l(libshutdown.o)
    0x080002da   0x080002da   0x00000000   Code   RO         2573    .ARM.Collect$$libshutdown$$00000002  c_w.l(libshutdown2.o)
    0x080002da   0x080002da   0x00000000   Code   RO         2575    .ARM.Collect$$libshutdown$$00000004  c_w.l(libshutdown2.o)
    0x080002da   0x080002da   0x00000000   Code   RO         2578    .ARM.Collect$$libshutdown$$00000007  c_w.l(libshutdown2.o)
    0x080002da   0x080002da   0x00000000   Code   RO         2581    .ARM.Collect$$libshutdown$$0000000A  c_w.l(libshutdown2.o)
    0x080002da   0x080002da   0x00000000   Code   RO         2583    .ARM.Collect$$libshutdown$$0000000C  c_w.l(libshutdown2.o)
    0x080002da   0x080002da   0x00000000   Code   RO         2586    .ARM.Collect$$libshutdown$$0000000F  c_w.l(libshutdown2.o)
    0x080002da   0x080002da   0x00000002   Code   RO         2587    .ARM.Collect$$libshutdown$$00000010  c_w.l(libshutdown2.o)
    0x080002dc   0x080002dc   0x00000000   Code   RO         2392    .ARM.Collect$$rtentry$$00000000  c_w.l(__rtentry.o)
    0x080002dc   0x080002dc   0x00000000   Code   RO         2490    .ARM.Collect$$rtentry$$00000002  c_w.l(__rtentry2.o)
    0x080002dc   0x080002dc   0x00000006   Code   RO         2502    .ARM.Collect$$rtentry$$00000004  c_w.l(__rtentry4.o)
    0x080002e2   0x080002e2   0x00000000   Code   RO         2492    .ARM.Collect$$rtentry$$00000009  c_w.l(__rtentry2.o)
    0x080002e2   0x080002e2   0x00000004   Code   RO         2493    .ARM.Collect$$rtentry$$0000000A  c_w.l(__rtentry2.o)
    0x080002e6   0x080002e6   0x00000000   Code   RO         2495    .ARM.Collect$$rtentry$$0000000C  c_w.l(__rtentry2.o)
    0x080002e6   0x080002e6   0x00000008   Code   RO         2496    .ARM.Collect$$rtentry$$0000000D  c_w.l(__rtentry2.o)
    0x080002ee   0x080002ee   0x00000002   Code   RO         2560    .ARM.Collect$$rtexit$$00000000  c_w.l(rtexit.o)
    0x080002f0   0x080002f0   0x00000000   Code   RO         2593    .ARM.Collect$$rtexit$$00000002  c_w.l(rtexit2.o)
    0x080002f0   0x080002f0   0x00000004   Code   RO         2594    .ARM.Collect$$rtexit$$00000003  c_w.l(rtexit2.o)
    0x080002f4   0x080002f4   0x00000006   Code   RO         2595    .ARM.Collect$$rtexit$$00000004  c_w.l(rtexit2.o)
    0x080002fa   0x080002fa   0x00000002   PAD
    0x080002fc   0x080002fc   0x00000044   Code   RO            4    .text               startup_stm32h563xx.o
    0x08000340   0x08000340   0x000000f0   Code   RO         2318    .text               c_w.l(lludivv7m.o)
    0x08000430   0x08000430   0x00000028   Code   RO         2322    .text               c_w.l(noretval__2sprintf.o)
    0x08000458   0x08000458   0x0000004e   Code   RO         2326    .text               c_w.l(_printf_pad.o)
    0x080004a6   0x080004a6   0x00000002   PAD
    0x080004a8   0x080004a8   0x00000078   Code   RO         2328    .text               c_w.l(_printf_dec.o)
    0x08000520   0x08000520   0x00000058   Code   RO         2333    .text               c_w.l(_printf_hex_int.o)
    0x08000578   0x08000578   0x00000138   Code   RO         2363    .text               c_w.l(__printf_flags_wp.o)
    0x080006b0   0x080006b0   0x0000003e   Code   RO         2374    .text               c_w.l(strlen.o)
    0x080006ee   0x080006ee   0x0000008a   Code   RO         2376    .text               c_w.l(rt_memcpy_v6.o)
    0x08000778   0x08000778   0x00000010   Code   RO         2380    .text               c_w.l(aeabi_memset4.o)
    0x08000788   0x08000788   0x00000044   Code   RO         2382    .text               c_w.l(rt_memclr.o)
    0x080007cc   0x080007cc   0x0000004e   Code   RO         2384    .text               c_w.l(rt_memclr_w.o)
    0x0800081a   0x0800081a   0x00000006   Code   RO         2386    .text               c_w.l(heapauxi.o)
    0x08000820   0x08000820   0x000000b2   Code   RO         2426    .text               c_w.l(_printf_intcommon.o)
    0x080008d2   0x080008d2   0x00000002   PAD
    0x080008d4   0x080008d4   0x00000030   Code   RO         2428    .text               c_w.l(_printf_char_common.o)
    0x08000904   0x08000904   0x0000000a   Code   RO         2430    .text               c_w.l(_sputc.o)
    0x0800090e   0x0800090e   0x00000064   Code   RO         2433    .text               c_w.l(rt_memcpy_w.o)
    0x08000972   0x08000972   0x00000002   PAD
    0x08000974   0x08000974   0x00000008   Code   RO         2486    .text               c_w.l(libspace.o)
    0x0800097c   0x0800097c   0x00000002   Code   RO         2527    .text               c_w.l(use_no_semi.o)
    0x0800097e   0x0800097e   0x00000000   Code   RO         2529    .text               c_w.l(indicate_semi.o)
    0x0800097e   0x0800097e   0x0000004a   Code   RO         2530    .text               c_w.l(sys_stackheap_outer.o)
    0x080009c8   0x080009c8   0x00000012   Code   RO         2536    .text               c_w.l(exit.o)
    0x080009da   0x080009da   0x00000002   PAD
    0x080009dc   0x080009dc   0x0000000c   Code   RO         2556    .text               c_w.l(sys_exit.o)
    0x080009e8   0x080009e8   0x00000002   Code   RO          135    .text.BusFault_Handler  stm32h5xx_it.o
    0x080009ea   0x080009ea   0x00000002   PAD
    0x080009ec   0x080009ec   0x00000038   Code   RO           43    .text.CH1_UART2_TxTaskFunction  app_freertos.o
    0x08000a24   0x08000a24   0x00000090   Code   RO           45    .text.CH2_UART4_RxTaskFunction  app_freertos.o
    0x08000ab4   0x08000ab4   0x00000002   Code   RO          139    .text.DebugMon_Handler  stm32h5xx_it.o
    0x08000ab6   0x08000ab6   0x00000002   PAD
    0x08000ab8   0x08000ab8   0x00000142   Code   RO         1594    .text.Draw_ASCII    draw.o
    0x08000bfa   0x08000bfa   0x00000002   PAD
    0x08000bfc   0x08000bfc   0x0000007c   Code   RO         1588    .text.Draw_Clear    draw.o
    0x08000c78   0x08000c78   0x0000000e   Code   RO         1586    .text.Draw_Init     draw.o
    0x08000c86   0x08000c86   0x00000002   PAD
    0x08000c88   0x08000c88   0x000000ba   Code   RO         1596    .text.Draw_String   draw.o
    0x08000d42   0x08000d42   0x00000002   PAD
    0x08000d44   0x08000d44   0x00000006   Code   RO           15    .text.Error_Handler  main.o
    0x08000d4a   0x08000d4a   0x00000002   PAD
    0x08000d4c   0x08000d4c   0x0000000c   Code   RO          141    .text.GPDMA1_Channel0_IRQHandler  stm32h5xx_it.o
    0x08000d58   0x08000d58   0x0000000c   Code   RO          143    .text.GPDMA1_Channel1_IRQHandler  stm32h5xx_it.o
    0x08000d64   0x08000d64   0x000000c8   Code   RO          655    .text.HAL_DMAEx_List_Start_IT  stm32h5xx_hal_dma_ex.o
    0x08000e2c   0x08000e2c   0x000000aa   Code   RO          619    .text.HAL_DMA_Abort  stm32h5xx_hal_dma.o
    0x08000ed6   0x08000ed6   0x00000002   PAD
    0x08000ed8   0x08000ed8   0x0000002e   Code   RO          621    .text.HAL_DMA_Abort_IT  stm32h5xx_hal_dma.o
    0x08000f06   0x08000f06   0x00000002   PAD
    0x08000f08   0x08000f08   0x00000046   Code   RO          635    .text.HAL_DMA_ConfigChannelAttributes  stm32h5xx_hal_dma.o
    0x08000f4e   0x08000f4e   0x00000002   PAD
    0x08000f50   0x08000f50   0x00000004   Code   RO          633    .text.HAL_DMA_GetError  stm32h5xx_hal_dma.o
    0x08000f54   0x08000f54   0x000001c0   Code   RO          625    .text.HAL_DMA_IRQHandler  stm32h5xx_hal_dma.o
    0x08001114   0x08001114   0x00000558   Code   RO          611    .text.HAL_DMA_Init  stm32h5xx_hal_dma.o
    0x0800166c   0x0800166c   0x000000a6   Code   RO          617    .text.HAL_DMA_Start_IT  stm32h5xx_hal_dma.o
    0x08001712   0x08001712   0x00000002   PAD
    0x08001714   0x08001714   0x00000028   Code   RO         1085    .text.HAL_Delay     stm32h5xx_hal.o
    0x0800173c   0x0800173c   0x00000198   Code   RO          903    .text.HAL_GPIO_Init  stm32h5xx_hal_gpio.o
    0x080018d4   0x080018d4   0x0000000c   Code   RO          909    .text.HAL_GPIO_WritePin  stm32h5xx_hal_gpio.o
    0x080018e0   0x080018e0   0x0000000c   Code   RO         1077    .text.HAL_GetTick   stm32h5xx_hal.o
    0x080018ec   0x080018ec   0x00000020   Code   RO         1227    .text.HAL_ICACHE_ConfigAssociativityMode  stm32h5xx_hal_icache.o
    0x0800190c   0x0800190c   0x00000014   Code   RO         1239    .text.HAL_ICACHE_Enable  stm32h5xx_hal_icache.o
    0x08001920   0x08001920   0x0000001a   Code   RO         1075    .text.HAL_IncTick   stm32h5xx_hal.o
    0x0800193a   0x0800193a   0x00000002   PAD
    0x0800193c   0x0800193c   0x00000046   Code   RO         1065    .text.HAL_Init      stm32h5xx_hal.o
    0x08001982   0x08001982   0x00000002   PAD
    0x08001984   0x08001984   0x000000ac   Code   RO          166    .text.HAL_InitTick  stm32h5xx_hal_timebase_tim.o
    0x08001a30   0x08001a30   0x0000000c   Code   RO          158    .text.HAL_MspInit   stm32h5xx_hal_msp.o
    0x08001a3c   0x08001a3c   0x00000020   Code   RO          567    .text.HAL_NVIC_EnableIRQ  stm32h5xx_hal_cortex.o
    0x08001a5c   0x08001a5c   0x00000056   Code   RO          565    .text.HAL_NVIC_SetPriority  stm32h5xx_hal_cortex.o
    0x08001ab2   0x08001ab2   0x00000002   PAD
    0x08001ab4   0x08001ab4   0x00000020   Code   RO          563    .text.HAL_NVIC_SetPriorityGrouping  stm32h5xx_hal_cortex.o
    0x08001ad4   0x08001ad4   0x000001ac   Code   RO          774    .text.HAL_RCCEx_GetPLL1ClockFreq  stm32h5xx_hal_rcc_ex.o
    0x08001c80   0x08001c80   0x000001ac   Code   RO          776    .text.HAL_RCCEx_GetPLL2ClockFreq  stm32h5xx_hal_rcc_ex.o
    0x08001e2c   0x08001e2c   0x000001ac   Code   RO          778    .text.HAL_RCCEx_GetPLL3ClockFreq  stm32h5xx_hal_rcc_ex.o
    0x08001fd8   0x08001fd8   0x00000ff4   Code   RO          780    .text.HAL_RCCEx_GetPeriphCLKFreq  stm32h5xx_hal_rcc_ex.o
    0x08002fcc   0x08002fcc   0x0000109e   Code   RO          766    .text.HAL_RCCEx_PeriphCLKConfig  stm32h5xx_hal_rcc_ex.o
    0x0800406a   0x0800406a   0x00000002   PAD
    0x0800406c   0x0800406c   0x00000264   Code   RO          730    .text.HAL_RCC_ClockConfig  stm32h5xx_hal_rcc.o
    0x080042d0   0x080042d0   0x00000044   Code   RO          744    .text.HAL_RCC_GetClockConfig  stm32h5xx_hal_rcc.o
    0x08004314   0x08004314   0x00000030   Code   RO          728    .text.HAL_RCC_GetHCLKFreq  stm32h5xx_hal_rcc.o
    0x08004344   0x08004344   0x00000046   Code   RO          736    .text.HAL_RCC_GetPCLK1Freq  stm32h5xx_hal_rcc.o
    0x0800438a   0x0800438a   0x00000002   PAD
    0x0800438c   0x0800438c   0x00000046   Code   RO          738    .text.HAL_RCC_GetPCLK2Freq  stm32h5xx_hal_rcc.o
    0x080043d2   0x080043d2   0x00000002   PAD
    0x080043d4   0x080043d4   0x00000046   Code   RO          740    .text.HAL_RCC_GetPCLK3Freq  stm32h5xx_hal_rcc.o
    0x0800441a   0x0800441a   0x00000002   PAD
    0x0800441c   0x0800441c   0x00000128   Code   RO          732    .text.HAL_RCC_GetSysClockFreq  stm32h5xx_hal_rcc.o
    0x08004544   0x08004544   0x00000622   Code   RO          726    .text.HAL_RCC_OscConfig  stm32h5xx_hal_rcc.o
    0x08004b66   0x08004b66   0x00000002   PAD
    0x08004b68   0x08004b68   0x0000022a   Code   RO         1271    .text.HAL_SPI_Init  stm32h5xx_hal_spi.o
    0x08004d92   0x08004d92   0x00000002   PAD
    0x08004d94   0x08004d94   0x000000d4   Code   RO           78    .text.HAL_SPI_MspInit  spi.o
    0x08004e68   0x08004e68   0x000003c8   Code   RO         1279    .text.HAL_SPI_Transmit  stm32h5xx_hal_spi.o
    0x08005230   0x08005230   0x00000002   Code   RO          540    .text.HAL_TIMEx_Break2Callback  stm32h5xx_hal_tim_ex.o
    0x08005232   0x08005232   0x00000002   PAD
    0x08005234   0x08005234   0x00000002   Code   RO          538    .text.HAL_TIMEx_BreakCallback  stm32h5xx_hal_tim_ex.o
    0x08005236   0x08005236   0x00000002   PAD
    0x08005238   0x08005238   0x00000002   Code   RO          534    .text.HAL_TIMEx_CommutCallback  stm32h5xx_hal_tim_ex.o
    0x0800523a   0x0800523a   0x00000002   PAD
    0x0800523c   0x0800523c   0x00000002   Code   RO          544    .text.HAL_TIMEx_DirectionChangeCallback  stm32h5xx_hal_tim_ex.o
    0x0800523e   0x0800523e   0x00000002   PAD
    0x08005240   0x08005240   0x00000002   Code   RO          542    .text.HAL_TIMEx_EncoderIndexCallback  stm32h5xx_hal_tim_ex.o
    0x08005242   0x08005242   0x00000002   PAD
    0x08005244   0x08005244   0x00000002   Code   RO          546    .text.HAL_TIMEx_IndexErrorCallback  stm32h5xx_hal_tim_ex.o
    0x08005246   0x08005246   0x00000002   PAD
    0x08005248   0x08005248   0x00000002   Code   RO          548    .text.HAL_TIMEx_TransitionErrorCallback  stm32h5xx_hal_tim_ex.o
    0x0800524a   0x0800524a   0x00000002   PAD
    0x0800524c   0x0800524c   0x00000062   Code   RO          181    .text.HAL_TIM_Base_Init  stm32h5xx_hal_tim.o
    0x080052ae   0x080052ae   0x00000002   PAD
    0x080052b0   0x080052b0   0x00000002   Code   RO          183    .text.HAL_TIM_Base_MspInit  stm32h5xx_hal_tim.o
    0x080052b2   0x080052b2   0x00000002   PAD
    0x080052b4   0x080052b4   0x00000132   Code   RO          195    .text.HAL_TIM_Base_Start_IT  stm32h5xx_hal_tim.o
    0x080053e6   0x080053e6   0x00000002   PAD
    0x080053e8   0x080053e8   0x00000002   Code   RO          319    .text.HAL_TIM_IC_CaptureCallback  stm32h5xx_hal_tim.o
    0x080053ea   0x080053ea   0x00000002   PAD
    0x080053ec   0x080053ec   0x000001fe   Code   RO          317    .text.HAL_TIM_IRQHandler  stm32h5xx_hal_tim.o
    0x080055ea   0x080055ea   0x00000002   PAD
    0x080055ec   0x080055ec   0x00000002   Code   RO          321    .text.HAL_TIM_OC_DelayElapsedCallback  stm32h5xx_hal_tim.o
    0x080055ee   0x080055ee   0x00000002   PAD
    0x080055f0   0x080055f0   0x00000002   Code   RO          323    .text.HAL_TIM_PWM_PulseFinishedCallback  stm32h5xx_hal_tim.o
    0x080055f2   0x080055f2   0x00000002   PAD
    0x080055f4   0x080055f4   0x00000014   Code   RO           17    .text.HAL_TIM_PeriodElapsedCallback  main.o
    0x08005608   0x08005608   0x00000002   Code   RO          327    .text.HAL_TIM_TriggerCallback  stm32h5xx_hal_tim.o
    0x0800560a   0x0800560a   0x00000002   PAD
    0x0800560c   0x0800560c   0x0000007a   Code   RO         1546    .text.HAL_UARTEx_EnableFifoMode  stm32h5xx_hal_uart_ex.o
    0x08005686   0x08005686   0x00000002   PAD
    0x08005688   0x08005688   0x000000b8   Code   RO         1558    .text.HAL_UARTEx_ReceiveToIdle_DMA  stm32h5xx_hal_uart_ex.o
    0x08005740   0x08005740   0x0000004e   Code   RO          105    .text.HAL_UARTEx_RxEventCallback  usart.o
    0x0800578e   0x0800578e   0x00000002   PAD
    0x08005790   0x08005790   0x00000002   Code   RO         1534    .text.HAL_UARTEx_RxFifoFullCallback  stm32h5xx_hal_uart_ex.o
    0x08005792   0x08005792   0x00000002   PAD
    0x08005794   0x08005794   0x00000090   Code   RO         1552    .text.HAL_UARTEx_SetRxFifoThreshold  stm32h5xx_hal_uart_ex.o
    0x08005824   0x08005824   0x00000090   Code   RO         1550    .text.HAL_UARTEx_SetTxFifoThreshold  stm32h5xx_hal_uart_ex.o
    0x080058b4   0x080058b4   0x00000002   Code   RO         1536    .text.HAL_UARTEx_TxFifoEmptyCallback  stm32h5xx_hal_uart_ex.o
    0x080058b6   0x080058b6   0x00000002   PAD
    0x080058b8   0x080058b8   0x00000002   Code   RO         1532    .text.HAL_UARTEx_WakeupCallback  stm32h5xx_hal_uart_ex.o
    0x080058ba   0x080058ba   0x00000002   PAD
    0x080058bc   0x080058bc   0x0000029c   Code   RO         1443    .text.HAL_UART_DMAStop  stm32h5xx_hal_uart.o
    0x08005b58   0x08005b58   0x00000028   Code   RO          107    .text.HAL_UART_ErrorCallback  usart.o
    0x08005b80   0x08005b80   0x0000059a   Code   RO         1471    .text.HAL_UART_IRQHandler  stm32h5xx_hal_uart.o
    0x0800611a   0x0800611a   0x00000002   PAD
    0x0800611c   0x0800611c   0x00000066   Code   RO         1387    .text.HAL_UART_Init  stm32h5xx_hal_uart.o
    0x08006182   0x08006182   0x00000002   PAD
    0x08006184   0x08006184   0x000001ba   Code   RO           95    .text.HAL_UART_MspInit  usart.o
    0x0800633e   0x0800633e   0x00000002   PAD
    0x08006340   0x08006340   0x00000048   Code   RO          103    .text.HAL_UART_RxCpltCallback  usart.o
    0x08006388   0x08006388   0x00000002   Code   RO         1485    .text.HAL_UART_RxHalfCpltCallback  stm32h5xx_hal_uart.o
    0x0800638a   0x0800638a   0x00000002   PAD
    0x0800638c   0x0800638c   0x00000130   Code   RO         1427    .text.HAL_UART_Transmit_DMA  stm32h5xx_hal_uart.o
    0x080064bc   0x080064bc   0x0000001c   Code   RO           99    .text.HAL_UART_TxCpltCallback  usart.o
    0x080064d8   0x080064d8   0x00000002   Code   RO         1481    .text.HAL_UART_TxHalfCpltCallback  stm32h5xx_hal_uart.o
    0x080064da   0x080064da   0x00000002   PAD
    0x080064dc   0x080064dc   0x00000002   Code   RO          131    .text.HardFault_Handler  stm32h5xx_it.o
    0x080064de   0x080064de   0x00000002   PAD
    0x080064e0   0x080064e0   0x00000012   Code   RO         1650    .text.LCD_GetInfo   spi_lcd.o
    0x080064f2   0x080064f2   0x00000002   PAD
    0x080064f4   0x080064f4   0x000013ce   Code   RO         1648    .text.LCD_Init      spi_lcd.o
    0x080078c2   0x080078c2   0x00000002   PAD
    0x080078c4   0x080078c4   0x00000012   Code   RO         1644    .text.LCD_SetDataLine  spi_lcd.o
    0x080078d6   0x080078d6   0x00000002   PAD
    0x080078d8   0x080078d8   0x0000029a   Code   RO         1652    .text.LCD_SetWindows  spi_lcd.o
    0x08007b72   0x08007b72   0x00000002   PAD
    0x08007b74   0x08007b74   0x00000040   Code   RO         1646    .text.LCD_WriteDatas  spi_lcd.o
    0x08007bb4   0x08007bb4   0x000000a8   Code   RO           37    .text.MX_FREERTOS_Init  app_freertos.o
    0x08007c5c   0x08007c5c   0x00000044   Code   RO           58    .text.MX_GPDMA1_Init  gpdma.o
    0x08007ca0   0x08007ca0   0x000000e0   Code   RO           28    .text.MX_GPIO_Init  gpio.o
    0x08007d80   0x08007d80   0x00000022   Code   RO           67    .text.MX_ICACHE_Init  icache.o
    0x08007da2   0x08007da2   0x00000002   PAD
    0x08007da4   0x08007da4   0x00000064   Code   RO           76    .text.MX_SPI2_Init  spi.o
    0x08007e08   0x08007e08   0x00000084   Code   RO           91    .text.MX_UART4_Init  usart.o
    0x08007e8c   0x08007e8c   0x00000084   Code   RO           93    .text.MX_USART2_UART_Init  usart.o
    0x08007f10   0x08007f10   0x00000002   Code   RO          133    .text.MemManage_Handler  stm32h5xx_it.o
    0x08007f12   0x08007f12   0x00000002   PAD
    0x08007f14   0x08007f14   0x00000002   Code   RO          129    .text.NMI_Handler   stm32h5xx_it.o
    0x08007f16   0x08007f16   0x0000000a   PAD
    0x08007f20   0x08007f20   0x00000054   Code   RO         2063    .text.PendSV_Handler  portasm.o
    0x08007f74   0x08007f74   0x000000f8   Code   RO          768    .text.RCCEx_PLL2_Config  stm32h5xx_hal_rcc_ex.o
    0x0800806c   0x0800806c   0x000000f8   Code   RO          770    .text.RCCEx_PLL3_Config  stm32h5xx_hal_rcc_ex.o
    0x08008164   0x08008164   0x00000034   Code   RO           41    .text.SPILCDTaskFunction  app_freertos.o
    0x08008198   0x08008198   0x000000c8   Code   RO         1281    .text.SPI_CloseTransfer  stm32h5xx_hal_spi.o
    0x08008260   0x08008260   0x00000024   Code   RO         2065    .text.SVC_Handler   portasm.o
    0x08008284   0x08008284   0x00000032   Code   RO           39    .text.StartDefaultTask  app_freertos.o
    0x080082b6   0x080082b6   0x00000002   PAD
    0x080082b8   0x080082b8   0x0000001e   Code   RO         2074    .text.SysTick_Handler  cmsis_os2.o
    0x080082d6   0x080082d6   0x00000002   PAD
    0x080082d8   0x080082d8   0x000000ae   Code   RO         1571    .text.SystemInit    system_stm32h5xx.o
    0x08008386   0x08008386   0x00000002   PAD
    0x08008388   0x08008388   0x0000000c   Code   RO          145    .text.TIM6_IRQHandler  stm32h5xx_it.o
    0x08008394   0x08008394   0x000002b8   Code   RO          185    .text.TIM_Base_SetConfig  stm32h5xx_hal_tim.o
    0x0800864c   0x0800864c   0x0000001e   Code   RO          111    .text.UART4_GetData  usart.o
    0x0800866a   0x0800866a   0x00000002   PAD
    0x0800866c   0x0800866c   0x0000000c   Code   RO          149    .text.UART4_IRQHandler  stm32h5xx_it.o
    0x08008678   0x08008678   0x00000030   Code   RO          113    .text.UART4_Rx_Start  usart.o
    0x080086a8   0x080086a8   0x000000e6   Code   RO         1391    .text.UART_AdvFeatureConfig  stm32h5xx_hal_uart.o
    0x0800878e   0x0800878e   0x00000002   PAD
    0x08008790   0x08008790   0x0000016a   Code   RO         1395    .text.UART_CheckIdleState  stm32h5xx_hal_uart.o
    0x080088fa   0x080088fa   0x00000002   PAD
    0x080088fc   0x080088fc   0x00000010   Code   RO         1473    .text.UART_DMAAbortOnError  stm32h5xx_hal_uart.o
    0x0800890c   0x0800890c   0x000001ea   Code   RO         1433    .text.UART_DMAError  stm32h5xx_hal_uart.o
    0x08008af6   0x08008af6   0x00000002   PAD
    0x08008af8   0x08008af8   0x00000114   Code   RO         1517    .text.UART_DMAReceiveCplt  stm32h5xx_hal_uart.o
    0x08008c0c   0x08008c0c   0x0000001a   Code   RO         1519    .text.UART_DMARxHalfCplt  stm32h5xx_hal_uart.o
    0x08008c26   0x08008c26   0x00000002   PAD
    0x08008c28   0x08008c28   0x00000064   Code   RO         1429    .text.UART_DMATransmitCplt  stm32h5xx_hal_uart.o
    0x08008c8c   0x08008c8c   0x00000006   Code   RO         1431    .text.UART_DMATxHalfCplt  stm32h5xx_hal_uart.o
    0x08008c92   0x08008c92   0x00000002   PAD
    0x08008c94   0x08008c94   0x0000033c   Code   RO         1393    .text.UART_SetConfig  stm32h5xx_hal_uart.o
    0x08008fd0   0x08008fd0   0x00000188   Code   RO         1437    .text.UART_Start_Receive_DMA  stm32h5xx_hal_uart.o
    0x08009158   0x08009158   0x000002e0   Code   RO         1409    .text.UART_WaitOnFlagUntilTimeout  stm32h5xx_hal_uart.o
    0x08009438   0x08009438   0x0000000c   Code   RO          147    .text.USART2_IRQHandler  stm32h5xx_it.o
    0x08009444   0x08009444   0x00000002   Code   RO          137    .text.UsageFault_Handler  stm32h5xx_it.o
    0x08009446   0x08009446   0x00000002   PAD
    0x08009448   0x08009448   0x0000002c   Code   RO          101    .text.Wait_UART2_Tx_Complete  usart.o
    0x08009474   0x08009474   0x00000116   Code   RO           11    .text.main          main.o
    0x0800958a   0x0800958a   0x00000002   PAD
    0x0800958c   0x0800958c   0x0000004c   Code   RO         2076    .text.osKernelInitialize  cmsis_os2.o
    0x080095d8   0x080095d8   0x0000005c   Code   RO         2082    .text.osKernelStart  cmsis_os2.o
    0x08009634   0x08009634   0x000000d4   Code   RO         2098    .text.osThreadNew   cmsis_os2.o
    0x08009708   0x08009708   0x00000086   Code   RO         1855    .text.prvAddCurrentTaskToDelayedList  tasks.o
    0x0800978e   0x0800978e   0x00000002   PAD
    0x08009790   0x08009790   0x000002a4   Code   RO         1845    .text.prvAddNewTaskToReadyList  tasks.o
    0x08009a34   0x08009a34   0x00000066   Code   RO         1879    .text.prvIdleTask   tasks.o
    0x08009a9a   0x08009a9a   0x00000002   PAD
    0x08009a9c   0x08009a9c   0x00000118   Code   RO         1843    .text.prvInitialiseNewTask  tasks.o
    0x08009bb4   0x08009bb4   0x000000a0   Code   RO         2004    .text.prvSampleTimeNow  timers.o
    0x08009c54   0x08009c54   0x00000036   Code   RO         2032    .text.prvTaskExitError  port.o
    0x08009c8a   0x08009c8a   0x00000002   PAD
    0x08009c8c   0x08009c8c   0x000001f6   Code   RO         1966    .text.prvTimerTask  timers.o
    0x08009e82   0x08009e82   0x00000002   PAD
    0x08009e84   0x08009e84   0x00000074   Code   RO         1744    .text.prvUnlockQueue  queue.o
    0x08009ef8   0x08009ef8   0x000001b0   Code   RO         2237    .text.pvPortMalloc  heap_4.o
    0x0800a0a8   0x0800a0a8   0x0000006e   Code   RO         2030    .text.pxPortInitialiseStack  port.o
    0x0800a116   0x0800a116   0x00000002   PAD
    0x0800a118   0x0800a118   0x00000016   Code   RO         2059    .text.ulSetInterruptMask  portasm.o
    0x0800a12e   0x0800a12e   0x00000002   PAD
    0x0800a130   0x0800a130   0x00000024   Code   RO         1708    .text.uxListRemove  list.o
    0x0800a154   0x0800a154   0x0000000c   Code   RO         1889    .text.uxTaskGetNumberOfTasks  tasks.o
    0x0800a160   0x0800a160   0x0000001a   Code   RO         2220    .text.vApplicationGetIdleTaskMemory  cmsis_os2.o
    0x0800a17a   0x0800a17a   0x00000002   PAD
    0x0800a17c   0x0800a17c   0x0000001a   Code   RO         2222    .text.vApplicationGetTimerTaskMemory  cmsis_os2.o
    0x0800a196   0x0800a196   0x00000002   PAD
    0x0800a198   0x0800a198   0x0000000e   Code   RO         2061    .text.vClearInterruptMask  portasm.o
    0x0800a1a6   0x0800a1a6   0x00000002   PAD
    0x0800a1a8   0x0800a1a8   0x00000016   Code   RO         1700    .text.vListInitialise  list.o
    0x0800a1be   0x0800a1be   0x00000002   PAD
    0x0800a1c0   0x0800a1c0   0x00000006   Code   RO         1702    .text.vListInitialiseItem  list.o
    0x0800a1c6   0x0800a1c6   0x00000002   PAD
    0x0800a1c8   0x0800a1c8   0x00000060   Code   RO         1706    .text.vListInsert   list.o
    0x0800a228   0x0800a228   0x0000001e   Code   RO         2022    .text.vPortEnterCritical  port.o
    0x0800a246   0x0800a246   0x00000002   PAD
    0x0800a248   0x0800a248   0x0000002e   Code   RO         2024    .text.vPortExitCritical  port.o
    0x0800a276   0x0800a276   0x00000002   PAD
    0x0800a278   0x0800a278   0x000000c4   Code   RO         2239    .text.vPortFree     heap_4.o
    0x0800a33c   0x0800a33c   0x0000001a   Code   RO         2028    .text.vPortSVCHandler_C  port.o
    0x0800a356   0x0800a356   0x00000002   PAD
    0x0800a358   0x0800a358   0x00000034   Code   RO         2018    .text.vPortSetupTimerInterrupt  port.o
    0x0800a38c   0x0800a38c   0x00000018   Code   RO         2020    .text.vPortYield    port.o
    0x0800a3a4   0x0800a3a4   0x00000114   Code   RO         1778    .text.vQueueAddToRegistry  queue.o
    0x0800a4b8   0x0800a4b8   0x00000050   Code   RO         1782    .text.vQueueWaitForMessageRestricted  queue.o
    0x0800a508   0x0800a508   0x00000008   PAD
    0x0800a510   0x0800a510   0x00000034   Code   RO         2049    .text.vRestoreContextOfFirstTask  portasm.o
    0x0800a544   0x0800a544   0x0000000c   PAD
    0x0800a550   0x0800a550   0x00000024   Code   RO         2057    .text.vStartFirstTask  portasm.o
    0x0800a574   0x0800a574   0x0000006e   Code   RO         1859    .text.vTaskDelay    tasks.o
    0x0800a5e2   0x0800a5e2   0x00000002   PAD
    0x0800a5e4   0x0800a5e4   0x00000012   Code   RO         1909    .text.vTaskInternalSetTimeOutState  tasks.o
    0x0800a5f6   0x0800a5f6   0x00000002   PAD
    0x0800a5f8   0x0800a5f8   0x0000000e   Code   RO         1913    .text.vTaskMissedYield  tasks.o
    0x0800a606   0x0800a606   0x00000002   PAD
    0x0800a608   0x0800a608   0x0000002a   Code   RO         1897    .text.vTaskPlaceOnEventList  tasks.o
    0x0800a632   0x0800a632   0x00000002   PAD
    0x0800a634   0x0800a634   0x00000092   Code   RO         1901    .text.vTaskPlaceOnEventListRestricted  tasks.o
    0x0800a6c6   0x0800a6c6   0x00000002   PAD
    0x0800a6c8   0x0800a6c8   0x000000c8   Code   RO         1877    .text.vTaskStartScheduler  tasks.o
    0x0800a790   0x0800a790   0x00000010   Code   RO         1853    .text.vTaskSuspendAll  tasks.o
    0x0800a7a0   0x0800a7a0   0x000000a6   Code   RO         1871    .text.vTaskSwitchContext  tasks.o
    0x0800a846   0x0800a846   0x00000002   PAD
    0x0800a848   0x0800a848   0x0000005c   Code   RO         2034    .text.xPortStartScheduler  port.o
    0x0800a8a4   0x0800a8a4   0x00000026   Code   RO         2026    .text.xPortSysTickHandler  port.o
    0x0800a8ca   0x0800a8ca   0x00000002   PAD
    0x0800a8cc   0x0800a8cc   0x0000008a   Code   RO         1722    .text.xQueueGenericCreate  queue.o
    0x0800a956   0x0800a956   0x00000002   PAD
    0x0800a958   0x0800a958   0x0000009e   Code   RO         1720    .text.xQueueGenericCreateStatic  queue.o
    0x0800a9f6   0x0800a9f6   0x00000002   PAD
    0x0800a9f8   0x0800a9f8   0x0000014e   Code   RO         1746    .text.xQueueGenericSendFromISR  queue.o
    0x0800ab46   0x0800ab46   0x00000002   PAD
    0x0800ab48   0x0800ab48   0x0000015a   Code   RO         1750    .text.xQueueReceive  queue.o
    0x0800aca2   0x0800aca2   0x00000002   PAD
    0x0800aca4   0x0800aca4   0x00000086   Code   RO         1911    .text.xTaskCheckForTimeOut  tasks.o
    0x0800ad2a   0x0800ad2a   0x00000002   PAD
    0x0800ad2c   0x0800ad2c   0x00000064   Code   RO         1847    .text.xTaskCreate   tasks.o
    0x0800ad90   0x0800ad90   0x0000007a   Code   RO         1841    .text.xTaskCreateStatic  tasks.o
    0x0800ae0a   0x0800ae0a   0x00000002   PAD
    0x0800ae0c   0x0800ae0c   0x0000001e   Code   RO         1925    .text.xTaskGetSchedulerState  tasks.o
    0x0800ae2a   0x0800ae2a   0x00000002   PAD
    0x0800ae2c   0x0800ae2c   0x0000000c   Code   RO         1885    .text.xTaskGetTickCount  tasks.o
    0x0800ae38   0x0800ae38   0x0000016e   Code   RO         1883    .text.xTaskIncrementTick  tasks.o
    0x0800afa6   0x0800afa6   0x00000002   PAD
    0x0800afa8   0x0800afa8   0x00000092   Code   RO         1929    .text.xTaskPriorityDisinherit  tasks.o
    0x0800b03a   0x0800b03a   0x00000002   PAD
    0x0800b03c   0x0800b03c   0x000000da   Code   RO         1903    .text.xTaskRemoveFromEventList  tasks.o
    0x0800b116   0x0800b116   0x00000002   PAD
    0x0800b118   0x0800b118   0x00000128   Code   RO         1857    .text.xTaskResumeAll  tasks.o
    0x0800b240   0x0800b240   0x000000ac   Code   RO         1964    .text.xTimerCreateTimerTask  timers.o
    0x0800b2ec   0x0800b2ec   0x0000000e   Code   RO         2361    i._is_digit         c_w.l(__printf_wp.o)
    0x0800b2fa   0x0800b2fa   0x0000001a   Code   RO         2525    x$fpl$fpinit        fz_wm.l(fpinit.o)
    0x0800b314   0x0800b314   0x00000028   Data   RO         2334    .constdata          c_w.l(_printf_hex_int.o)
    0x0800b33c   0x0800b33c   0x00000011   Data   RO         2364    .constdata          c_w.l(__printf_flags_wp.o)
    0x0800b34d   0x0800b34d   0x00000010   Data   RO         1576    .rodata.AHBPrescTable  system_stm32h5xx.o
    0x0800b35d   0x0800b35d   0x00000008   Data   RO         1577    .rodata.APBPrescTable  system_stm32h5xx.o
    0x0800b365   0x0800b365   0x00000001   PAD
    0x0800b366   0x0800b366   0x00000018   Data   RO         1521    .rodata.UARTPrescTable  stm32h5xx_hal_uart.o
    0x0800b37e   0x0800b37e   0x00000010   Data   RO         1562    .rodata.cst8        stm32h5xx_hal_uart_ex.o
    0x0800b38e   0x0800b38e   0x00000002   PAD
    0x0800b390   0x0800b390   0x00000024   Data   RO           48    .rodata.defaultTask_attributes  app_freertos.o
    0x0800b3b4   0x0800b3b4   0x00001000   Data   RO         1625    .rodata.fontdata_8x16  font_8x16.o
    0x0800c3b4   0x0800c3b4   0x0000000c   Data   RO           47    .rodata.str1.1      app_freertos.o
    0x0800c3c0   0x0800c3c0   0x00000005   Data   RO         2008    .rodata.str1.1      timers.o
    0x0800c3c5   0x0800c3c5   0x00000003   PAD
    0x0800c3c8   0x0800c3c8   0x00000004   Data   RO         1952    .rodata.uxTopUsedPriority  tasks.o
    0x0800c3cc   0x0800c3cc   0x00000020   Data   RO         2619    Region$$Table       anon$$obj.o


    Execution Region RW_IRAM1 (Exec base: 0x20000000, Load base: 0x0800c3f0, Size: 0x00005338, Max: 0x000a0000, ABSOLUTE)

    Exec Addr    Load Addr    Size         Type   Attr      Idx    E Section Name        Object

    0x20000000   0x0800c3f0   0x00000008   Data   RW         1188    .data..L_MergedGlobals  stm32h5xx_hal.o
    0x20000008   0x0800c3f8   0x00000004   Data   RW         1575    .data.SystemCoreClock  system_stm32h5xx.o
    0x2000000c   0x0800c3fc   0x00000004   Data   RW         2040    .data.ulCriticalNesting  port.o
    0x20000010        -       0x00000060   Zero   RW         2487    .bss                c_w.l(libspace.o)
    0x20000070        -       0x0000006c   Zero   RW          120    .bss..L_MergedGlobals  usart.o
    0x200000dc        -       0x0000000c   Zero   RW         1616    .bss..L_MergedGlobals  draw.o
    0x200000e8        -       0x00000008   Zero   RW         1654    .bss..L_MergedGlobals  spi_lcd.o
    0x200000f0        -       0x00000074   Zero   RW         1954    .bss..L_MergedGlobals  tasks.o
    0x20000164        -       0x0000003c   Zero   RW         2009    .bss..L_MergedGlobals  timers.o
    0x200001a0        -       0x0000001c   Zero   RW         2252    .bss..L_MergedGlobals  heap_4.o
    0x200001bc        -       0x00000028   Zero   RW         1955    .bss..L_MergedGlobals.1  tasks.o
    0x200001e4        -       0x00000004   Zero   RW         2224    .bss.KernelState    cmsis_os2.o
    0x200001e8        -       0x00000004   Zero   RW           49    .bss.defaultTaskHandle  app_freertos.o
    0x200001ec        -       0x00000004   Zero   RW          119    .bss.g_uart2_tx_complete  usart.o
    0x200001f0        -       0x00000078   Zero   RW          118    .bss.handle_GPDMA1_Channel0  usart.o
    0x20000268        -       0x00000078   Zero   RW          117    .bss.handle_GPDMA1_Channel1  usart.o
    0x200002e0        -       0x00000090   Zero   RW           82    .bss.hspi2          spi.o
    0x20000370        -       0x0000004c   Zero   RW          172    .bss.htim6          stm32h5xx_hal_timebase_tim.o
    0x200003bc        -       0x00000094   Zero   RW          116    .bss.huart2         usart.o
    0x20000450        -       0x00000094   Zero   RW          115    .bss.huart4         usart.o
    0x200004e4        -       0x000000a0   Zero   RW         2007    .bss.prvCheckForValidListAndQueue.ucStaticTimerQueueStorage  timers.o
    0x20000584        -       0x00000050   Zero   RW         2006    .bss.prvCheckForValidListAndQueue.xStaticTimerQueue  timers.o
    0x200005d4        -       0x00000004   Zero   RW         1951    .bss.pxCurrentTCB   tasks.o
    0x200005d8        -       0x00000460   Zero   RW         1953    .bss.pxReadyTasksLists  tasks.o
    0x20000a38        -       0x00002000   Zero   RW         2251    .bss.ucHeap         heap_4.o
    0x20002a38        -       0x00000004   Zero   RW         1187    .bss.uwTick         stm32h5xx_hal.o
    0x20002a3c        -       0x00000200   Zero   RW         2226    .bss.vApplicationGetIdleTaskMemory.Idle_Stack  cmsis_os2.o
    0x20002c3c        -       0x0000005c   Zero   RW         2225    .bss.vApplicationGetIdleTaskMemory.Idle_TCB  cmsis_os2.o
    0x20002c98        -       0x00000200   Zero   RW         2228    .bss.vApplicationGetTimerTaskMemory.Timer_Stack  cmsis_os2.o
    0x20002e98        -       0x0000005c   Zero   RW         2227    .bss.vApplicationGetTimerTaskMemory.Timer_TCB  cmsis_os2.o
    0x20002ef4        -       0x00000040   Zero   RW         1784    .bss.xQueueRegistry  queue.o
    0x20002f34   0x0800c400   0x00000004   PAD
    0x20002f38        -       0x00002000   Zero   RW            2    HEAP                startup_stm32h563xx.o
    0x20004f38        -       0x00000400   Zero   RW            1    STACK               startup_stm32h563xx.o


==============================================================================

Image component sizes


      Code (inc. data)   RO Data    RW Data    ZI Data      Debug   Object Name

       470        108         48          0          4       4286   app_freertos.o
       462          0          0          0       1212      66342   cmsis_os2.o
       646          0          0          0         12      15328   draw.o
         0          0       4096          0          0        407   font_8x16.o
        68          0          0          0          0       4920   gpdma.o
       224          0          0          0          0       2972   gpio.o
       628          0          0          0       8220       5568   heap_4.o
        34          0          0          0          0        549   icache.o
       160          0          0          0          0       2323   list.o
       304          0          0          0          0       7420   main.o
       472          0          0          4          0       2947   port.o
       244         16          0          0          0       1358   portasm.o
      1448          0          0          0         64      25600   queue.o
       312          0          0          0        144       9220   spi.o
      5836          8          0          0          8      21966   spi_lcd.o
        68         28        588          0       9216        928   startup_stm32h563xx.o
       148          0          0          8          4      14358   stm32h5xx_hal.o
       150          0          0          0          0      13945   stm32h5xx_hal_cortex.o
      2272          0          0          0          0      11230   stm32h5xx_hal_dma.o
       200          0          0          0          0      52764   stm32h5xx_hal_dma_ex.o
       420          0          0          0          0       5110   stm32h5xx_hal_gpio.o
        52          0          0          0          0       6171   stm32h5xx_hal_icache.o
        12          0          0          0          0       3167   stm32h5xx_hal_msp.o
      2804         16          0          0          0      12679   stm32h5xx_hal_rcc.o
     10118        456          0          0          0      29190   stm32h5xx_hal_rcc_ex.o
      1722          0          0          0          0      23882   stm32h5xx_hal_spi.o
      1620          0          0          0          0      74323   stm32h5xx_hal_tim.o
        14          0          0          0          0      29556   stm32h5xx_hal_tim_ex.o
       172          0          0          0         76       9879   stm32h5xx_hal_timebase_tim.o
      5974          0         24          0          0      37979   stm32h5xx_hal_uart.o
       600          0         16          0          0      11614   stm32h5xx_hal_uart_ex.o
        72          0          0          0          0       1183   stm32h5xx_it.o
       174          0         24          4          0       6074   system_stm32h5xx.o
      3340          8          4          0       1280      40066   tasks.o
       834         18          5          0        300      15612   timers.o
      1046          0          0          0        648      14369   usart.o

    ----------------------------------------------------------------------
     43336        670       4843         16      21192     585285   Object Totals
         0          0         32          0          0          0   (incl. Generated)
       216         12          6          0          4          0   (incl. Padding)

    ----------------------------------------------------------------------

      Code (inc. data)   RO Data    RW Data    ZI Data      Debug   Library Member Name

         8          0          0          0          0         68   __main.o
       312          4         17          0          0         92   __printf_flags_wp.o
        14          0          0          0          0         68   __printf_wp.o
         0          0          0          0          0          0   __rtentry.o
        12          0          0          0          0          0   __rtentry2.o
         6          0          0          0          0          0   __rtentry4.o
        52          8          0          0          0          0   __scatter.o
        26          0          0          0          0          0   __scatter_copy.o
        28          0          0          0          0          0   __scatter_zi.o
        48          6          0          0          0         96   _printf_char_common.o
         6          0          0          0          0          0   _printf_d.o
       120         16          0          0          0         92   _printf_dec.o
        88          4         40          0          0         88   _printf_hex_int.o
       178          0          0          0          0         88   _printf_intcommon.o
        78          0          0          0          0        108   _printf_pad.o
         0          0          0          0          0          0   _printf_percent.o
         4          0          0          0          0          0   _printf_percent_end.o
         6          0          0          0          0          0   _printf_x.o
        10          0          0          0          0         68   _sputc.o
        16          0          0          0          0         68   aeabi_memset4.o
        18          0          0          0          0         80   exit.o
         6          0          0          0          0        152   heapauxi.o
         0          0          0          0          0          0   indicate_semi.o
         2          0          0          0          0          0   libinit.o
         6          0          0          0          0          0   libinit2.o
         2          0          0          0          0          0   libshutdown.o
         2          0          0          0          0          0   libshutdown2.o
         8          4          0          0         96         68   libspace.o
       240          0          0          0          0        100   lludivv7m.o
        40          6          0          0          0         84   noretval__2sprintf.o
        68          0          0          0          0         68   rt_memclr.o
        78          0          0          0          0         80   rt_memclr_w.o
       138          0          0          0          0         68   rt_memcpy_v6.o
       100          0          0          0          0         80   rt_memcpy_w.o
         2          0          0          0          0          0   rtexit.o
        10          0          0          0          0          0   rtexit2.o
        62          0          0          0          0         76   strlen.o
        12          4          0          0          0         68   sys_exit.o
        74          0          0          0          0         80   sys_stackheap_outer.o
         2          0          0          0          0         68   use_no_semi.o
        26          0          0          0          0        116   fpinit.o

    ----------------------------------------------------------------------
      1920         52         57          0         96       2024   Library Totals
        12          0          0          0          0          0   (incl. Padding)

    ----------------------------------------------------------------------

      Code (inc. data)   RO Data    RW Data    ZI Data      Debug   Library Name

      1882         52         57          0         96       1908   c_w.l
        26          0          0          0          0        116   fz_wm.l

    ----------------------------------------------------------------------
      1920         52         57          0         96       2024   Library Totals

    ----------------------------------------------------------------------

==============================================================================


      Code (inc. data)   RO Data    RW Data    ZI Data      Debug   

     45256        722       4900         16      21288     585793   Grand Totals
     45256        722       4900         16      21288     585793   ELF Image Totals
     45256        722       4900         16          0          0   ROM Totals

==============================================================================

    Total RO  Size (Code + RO Data)                50156 (  48.98kB)
    Total RW  Size (RW Data + ZI Data)             21304 (  20.80kB)
    Total ROM Size (Code + RO Data + RW Data)      50172 (  49.00kB)

==============================================================================

